{
  "contractName": "AdminRepository",
  "abi": [
    {
      "constant": true,
      "inputs": [],
      "name": "name",
      "outputs": [
        {
          "name": "",
          "type": "string"
        }
      ],
      "payable": false,
      "stateMutability": "view",
      "type": "function"
    },
    {
      "constant": false,
      "inputs": [],
      "name": "kill",
      "outputs": [],
      "payable": false,
      "stateMutability": "nonpayable",
      "type": "function"
    },
    {
      "constant": true,
      "inputs": [],
      "name": "owner",
      "outputs": [
        {
          "name": "",
          "type": "address"
        }
      ],
      "payable": false,
      "stateMutability": "view",
      "type": "function"
    },
    {
      "inputs": [
        {
          "name": "adminDatabase",
          "type": "address"
        }
      ],
      "payable": false,
      "stateMutability": "nonpayable",
      "type": "constructor"
    },
    {
      "constant": false,
      "inputs": [],
      "name": "initialize",
      "outputs": [],
      "payable": false,
      "stateMutability": "nonpayable",
      "type": "function"
    },
    {
      "constant": true,
      "inputs": [],
      "name": "adminDatabase",
      "outputs": [
        {
          "name": "",
          "type": "address"
        }
      ],
      "payable": false,
      "stateMutability": "view",
      "type": "function"
    },
    {
      "constant": true,
      "inputs": [
        {
          "name": "account",
          "type": "address"
        }
      ],
      "name": "isAdmin",
      "outputs": [
        {
          "name": "",
          "type": "bool"
        }
      ],
      "payable": false,
      "stateMutability": "view",
      "type": "function"
    },
    {
      "constant": false,
      "inputs": [
        {
          "name": "account",
          "type": "address"
        }
      ],
      "name": "insertAdmin",
      "outputs": [],
      "payable": false,
      "stateMutability": "nonpayable",
      "type": "function"
    },
    {
      "constant": false,
      "inputs": [],
      "name": "renounceAdmin",
      "outputs": [],
      "payable": false,
      "stateMutability": "nonpayable",
      "type": "function"
    },
    {
      "constant": false,
      "inputs": [
        {
          "name": "account",
          "type": "address"
        }
      ],
      "name": "renounceAdminFrom",
      "outputs": [],
      "payable": false,
      "stateMutability": "nonpayable",
      "type": "function"
    }
  ],
  "bytecode": "0x60806040523480156200001157600080fd5b5060405160208062001a96833981016040818152915182820190925260108082527f61646d696e2d7265706f7369746f7279000000000000000000000000000000006020830190815260008054600160a060020a031916331790556200007b91600191906200011b565b5050600160a060020a0381161515620000f557604080517f08c379a000000000000000000000000000000000000000000000000000000000815260206004820152601960248201527f456d7074792061646472657373206e6f7420616c6c6f77656400000000000000604482015290519081900360640190fd5b60028054600160a060020a031916600160a060020a0392909216919091179055620001c0565b828054600181600116156101000203166002900490600052602060002090601f016020900481019282601f106200015e57805160ff19168380011785556200018e565b828001600101855582156200018e579182015b828111156200018e57825182559160200191906001019062000171565b506200019c929150620001a0565b5090565b620001bd91905b808211156200019c5760008155600101620001a7565b90565b6118c680620001d06000396000f30060806040526004361061007f5763ffffffff60e060020a60003504166306fdde03811461008457806324d7806c1461010e578063325b6ddb1461014357806341c0e1b5146101665780634922a80d1461017b5780638129fc1c1461019c5780638bad0c0a146101b15780638da5cb5b146101c6578063b8f69c26146101f7575b600080fd5b34801561009057600080fd5b5061009961020c565b6040805160208082528351818301528351919283929083019185019080838360005b838110156100d35781810151838201526020016100bb565b50505050905090810190601f1680156101005780820380516001836020036101000a031916815260200191505b509250505060405180910390f35b34801561011a57600080fd5b5061012f600160a060020a03600435166102a1565b604080519115158252519081900360200190f35b34801561014f57600080fd5b50610164600160a060020a03600435166102c6565b005b34801561017257600080fd5b50610164610331565b34801561018757600080fd5b50610164600160a060020a036004351661034c565b3480156101a857600080fd5b5061016461036c565b3480156101bd57600080fd5b5061016461038e565b3480156101d257600080fd5b506101db610397565b60408051600160a060020a039092168252519081900360200190f35b34801561020357600080fd5b506101db6103a6565b60018054604080516020601f600260001961010087891615020190951694909404938401819004810282018101909252828152606093909290918301828280156102975780601f1061026c57610100808354040283529160200191610297565b820191906000526020600020905b81548152906001019060200180831161027a57829003601f168201915b5050505050905090565b6002546000906102c090600160a060020a03168363ffffffff6103b516565b92915050565b6102cf336102a1565b1515610325576040805160e560020a62461bcd02815260206004820152601960248201527f41646d696e3a206f6e6c792061646d696e20616c6c6f77656400000000000000604482015290519081900360640190fd5b61032e816108f1565b50565b600054600160a060020a0316331461034857600080fd5b6000ff5b600054600160a060020a0316331461036357600080fd5b61032e81610911565b600054600160a060020a0316331461038357600080fd5b61038c336108f1565b565b61038c33610911565b600054600160a060020a031690565b600254600160a060020a031690565b60408051808201909152601c81527f41646d696e50657273697374656e63653a206e6f74206578697374730000000060208201526000908190600160a060020a03841615156104855760405160e560020a62461bcd0281526004018080602001828103825283818151815260200191508051906020019080838360005b8381101561044a578181015183820152602001610432565b50505050905090810190601f1680156104775780820380516001836020036101000a031916815260200191505b509250505060405180910390fd5b5083600160a060020a031663e82617fb6040805190810160405280600b815260200160008051602061187b8339815191528152506040516020018080602001828103825283818151815260200191508051906020019080838360005b838110156104f95781810151838201526020016104e1565b50505050905090810190601f1680156105265780820380516001836020036101000a031916815260200191505b50925050506040516020818303038152906040526040518082805190602001908083835b602083106105695780518252601f19909201916020918201910161054a565b51815160209384036101000a60001901801990921691161790526040805192909401829003822063ffffffff881660e060020a0283526004830152925160248083019650939450929083900301905081600087803b1580156105ca57600080fd5b505af11580156105de573d6000803e3d6000fd5b505050506040513d60208110156105f457600080fd5b5051151561060557600091506108ea565b83600160a060020a031663e82617fb6040805190810160405280600b815260200160008051602061187b833981519152815250856040516020018083805190602001908083835b6020831061066b5780518252601f19909201916020918201910161064c565b6001836020036101000a03801982511681845116808217855250505050505090500182600160a060020a0316600160a060020a03166c01000000000000000000000000028152601401925050506040516020818303038152906040526040518082805190602001908083835b602083106106f65780518252601f1990920191602091820191016106d7565b51815160209384036101000a60001901801990921691161790526040805192909401829003822063ffffffff881660e060020a0283526004830152925160248083019650939450929083900301905081600087803b15801561075757600080fd5b505af115801561076b573d6000803e3d6000fd5b505050506040513d602081101561078157600080fd5b5051604080518082018252600b80825260008051602061187b83398151915260208381019182529351949550600160a060020a0380891695908a1694634c77e5ba94938893929091019182918083835b602083106107f05780518252601f1990920191602091820191016107d1565b51815160209384036101000a600019018019909216911617905292019384525060408051808503815293820190819052835193945092839250908401908083835b602083106108505780518252601f199092019160209182019101610831565b51815160209384036101000a60001901801990921691161790526040805192909401829003822063ffffffff881660e060020a0283526004830152925160248083019650939450929083900301905081600087803b1580156108b157600080fd5b505af11580156108c5573d6000803e3d6000fd5b505050506040513d60208110156108db57600080fd5b5051600160a060020a03161491505b5092915050565b60025461090d90600160a060020a03168263ffffffff61092d16565b5050565b60025461090d90600160a060020a03168263ffffffff610f6416565b600061093983836103b5565b6040805180820190915260208082527f41646d696e50657273697374656e63653a20616c7265616479206578697374739082015290156109be5760405160e560020a62461bcd0281526004018080602001828103825283818151815260200191508051906020019080838360008381101561044a578181015183820152602001610432565b5082600160a060020a031663e82617fb6040805190810160405280600b815260200160008051602061187b8339815191528152506040516020018080602001828103825283818151815260200191508051906020019080838360005b83811015610a32578181015183820152602001610a1a565b50505050905090810190601f168015610a5f5780820380516001836020036101000a031916815260200191505b50925050506040516020818303038152906040526040518082805190602001908083835b60208310610aa25780518252601f199092019160209182019101610a83565b51815160209384036101000a60001901801990921691161790526040805192909401829003822063ffffffff881660e060020a0283526004830152925160248083019650939450929083900301905081600087803b158015610b0357600080fd5b505af1158015610b17573d6000803e3d6000fd5b505050506040513d6020811015610b2d57600080fd5b5051604080518082018252600b80825260008051602061187b83398151915260208381019182529351949550600160a060020a0388169463ffb4f62394889391019182918083835b60208310610b945780518252601f199092019160209182019101610b75565b6001836020036101000a03801982511681845116808217855250505050505090500182600160a060020a0316600160a060020a03166c01000000000000000000000000028152601401925050506040516020818303038152906040526040518082805190602001908083835b60208310610c1f5780518252601f199092019160209182019101610c00565b5181516020939093036101000a60001901801990911692169190911790526040805191909301819003812063ffffffff871660e060020a028252600482015260248101889052915160448084019550600094509092839003019050818387803b158015610c8b57600080fd5b505af1158015610c9f573d6000803e3d6000fd5b5050505082600160a060020a0316635a2bf25a6040805190810160405280600b815260200160008051602061187b833981519152815250836040516020018083805190602001908083835b60208310610d095780518252601f199092019160209182019101610cea565b51815160209384036101000a600019018019909216911617905292019384525060408051808503815293820190819052835193945092839250908401908083835b60208310610d695780518252601f199092019160209182019101610d4a565b5181516020939093036101000a60001901801990911692169190911790526040805191909301819003812063ffffffff871660e060020a0282526004820152600160a060020a0389166024820152915160448084019550600094509092839003019050818387803b158015610ddd57600080fd5b505af1158015610df1573d6000803e3d6000fd5b5050505082600160a060020a031663ffb4f6236040805190810160405280600b815260200160008051602061187b8339815191528152506040516020018080602001828103825283818151815260200191508051906020019080838360005b83811015610e68578181015183820152602001610e50565b50505050905090810190601f168015610e955780820380516001836020036101000a031916815260200191505b50925050506040516020818303038152906040526040518082805190602001908083835b60208310610ed85780518252601f199092019160209182019101610eb9565b5181516020939093036101000a60001901801990911692169190911790526040805191909301819003812063ffffffff871660e060020a0282526004820152600188016024820152915160448084019550600094509092839003019050818387803b158015610f4657600080fd5b505af1158015610f5a573d6000803e3d6000fd5b5050505092915050565b600080600080610f7486866103b5565b60408051808201909152601c81527f41646d696e50657273697374656e63653a206e6f7420657869737473000000006020820152901515610ffa5760405160e560020a62461bcd0281526004018080602001828103825283818151815260200191508051906020019080838360008381101561044a578181015183820152602001610432565b5085600160a060020a031663e82617fb6040805190810160405280600b815260200160008051602061187b833981519152815250876040516020018083805190602001908083835b602083106110615780518252601f199092019160209182019101611042565b6001836020036101000a03801982511681845116808217855250505050505090500182600160a060020a0316600160a060020a03166c01000000000000000000000000028152601401925050506040516020818303038152906040526040518082805190602001908083835b602083106110ec5780518252601f1990920191602091820191016110cd565b51815160209384036101000a60001901801990921691161790526040805192909401829003822063ffffffff881660e060020a0283526004830152925160248083019650939450929083900301905081600087803b15801561114d57600080fd5b505af1158015611161573d6000803e3d6000fd5b505050506040513d602081101561117757600080fd5b5051604080518082018252600b815260008051602061187b833981519152602082810191825283518082019182528351948101949094528251949750600194600160a060020a038c169463e82617fb9493839260609092019180838360005b838110156111ee5781810151838201526020016111d6565b50505050905090810190601f16801561121b5780820380516001836020036101000a031916815260200191505b50925050506040516020818303038152906040526040518082805190602001908083835b6020831061125e5780518252601f19909201916020918201910161123f565b51815160209384036101000a60001901801990921691161790526040805192909401829003822063ffffffff881660e060020a0283526004830152925160248083019650939450929083900301905081600087803b1580156112bf57600080fd5b505af11580156112d3573d6000803e3d6000fd5b505050506040513d60208110156112e957600080fd5b5051604080518082018252600b80825260008051602061187b83398151915260208381019182529351959094039650600160a060020a038b1694634c77e5ba94929388939101918291908083835b602083106113565780518252601f199092019160209182019101611337565b51815160209384036101000a600019018019909216911617905292019384525060408051808503815293820190819052835193945092839250908401908083835b602083106113b65780518252601f199092019160209182019101611397565b51815160209384036101000a60001901801990921691161790526040805192909401829003822063ffffffff881660e060020a0283526004830152925160248083019650939450929083900301905081600087803b15801561141757600080fd5b505af115801561142b573d6000803e3d6000fd5b505050506040513d602081101561144157600080fd5b5051604080518082018252600b80825260008051602061187b83398151915260208381019182529351949550600160a060020a038b1694635a2bf25a94899391019182918083835b602083106114a85780518252601f199092019160209182019101611489565b51815160209384036101000a600019018019909216911617905292019384525060408051808503815293820190819052835193945092839250908401908083835b602083106115085780518252601f1990920191602091820191016114e9565b5181516020939093036101000a60001901801990911692169190911790526040805191909301819003812063ffffffff871660e060020a0282526004820152600160a060020a0388166024820152915160448084019550600094509092839003019050818387803b15801561157c57600080fd5b505af1158015611590573d6000803e3d6000fd5b5050505085600160a060020a031663ffb4f6236040805190810160405280600b815260200160008051602061187b833981519152815250836040516020018083805190602001908083835b602083106115fa5780518252601f1990920191602091820191016115db565b6001836020036101000a03801982511681845116808217855250505050505090500182600160a060020a0316600160a060020a03166c01000000000000000000000000028152601401925050506040516020818303038152906040526040518082805190602001908083835b602083106116855780518252601f199092019160209182019101611666565b5181516020939093036101000a60001901801990911692169190911790526040805191909301819003812063ffffffff871660e060020a0282526004820152602481018a9052915160448084019550600094509092839003019050818387803b1580156116f157600080fd5b505af1158015611705573d6000803e3d6000fd5b5050505085600160a060020a031663ffb4f6236040805190810160405280600b815260200160008051602061187b8339815191528152506040516020018080602001828103825283818151815260200191508051906020019080838360005b8381101561177c578181015183820152602001611764565b50505050905090810190601f1680156117a95780820380516001836020036101000a031916815260200191505b50925050506040516020818303038152906040526040518082805190602001908083835b602083106117ec5780518252601f1990920191602091820191016117cd565b5181516020939093036101000a60001901801990911692169190911790526040805191909301819003812063ffffffff871660e060020a028252600482015260248101899052915160448084019550600094509092839003019050818387803b15801561185857600080fd5b505af115801561186c573d6000803e3d6000fd5b509498975050505050505050560061646d696e2e696e646578000000000000000000000000000000000000000000a165627a7a7230582025d73a00ae114f55ab32f1dd07c466709e09634598de7c4ff0ffe9a00d2283fa0029",
  "source": "pragma solidity 0.4.25;\n\nimport \"./../common/Named.sol\";\nimport \"./../common/Mortal.sol\";\nimport \"./../common/Database.sol\";\n\ncontract AdminDatabase is Database {\n    \n}\n\nlibrary AdminPersistence {\n    \n    ///ERROR_MESSAGES\n    string constant NOT_EXISTS = \"AdminPersistence: not exists\";\n    string constant ALREADY_EXISTS = \"AdminPersistence: already exists\";\n\n    ///HASH_FIELDS\n    string constant INDEX_VALUE = \"admin.index\";\n    bytes32 constant INDEX = keccak256(abi.encode(INDEX_VALUE));\n\n    struct Admin {\n        uint index;\n    }\n\n    function getAdminsCount(AdminDatabase self) internal view returns (uint) {\n        return self.getUintValue(INDEX);\n    }\n\n    function getAdminAtIndex(AdminDatabase self, uint index) internal view returns (address) {\n        require(getAdminsCount(self) < index, NOT_EXISTS);\n        return self.getAddressValue(keccak256(abi.encodePacked(INDEX_VALUE, index)));\n    }\n    \n    function isAdmin(AdminDatabase self, address admin) internal view returns (bool) {\n        require(admin != address(0), NOT_EXISTS);\n        if (self.getUintValue(INDEX) == 0) return false;\n        uint index = self.getUintValue(keccak256(abi.encodePacked(INDEX_VALUE, admin)));\n        return self.getAddressValue(keccak256(abi.encodePacked(INDEX_VALUE, index))) == admin;\n    }\n    \n    function insertAdmin(AdminDatabase self, address admin) internal returns (uint index) {\n        require(!isAdmin(self, admin), ALREADY_EXISTS);\n        index = self.getUintValue(INDEX);\n        self.setUintValue(keccak256(abi.encodePacked(INDEX_VALUE, admin)), index);\n        self.setAddressValue(keccak256(abi.encodePacked(INDEX_VALUE, index)), admin);\n        self.setUintValue(INDEX, index + 1);\n        return index;\n    }\n\n    function readAdmin(AdminDatabase self, address admin) internal view returns (uint index) {\n        require(isAdmin(self, admin), NOT_EXISTS);\n        index = self.getUintValue(keccak256(abi.encodePacked(INDEX_VALUE, admin)));\n        return index;\n    }\n    \n    function remove(AdminDatabase self, address admin) internal returns (uint) {\n        require(isAdmin(self, admin), NOT_EXISTS);\n        uint rowToDelete = self.getUintValue(keccak256(abi.encodePacked(INDEX_VALUE, admin)));\n        uint index = self.getUintValue(INDEX) - 1;\n        address keyToMove = self.getAddressValue(keccak256(abi.encodePacked(INDEX_VALUE, index)));\n        self.setAddressValue(keccak256(abi.encodePacked(INDEX_VALUE, rowToDelete)), keyToMove);\n        self.setUintValue(keccak256(abi.encodePacked(INDEX_VALUE, keyToMove)), rowToDelete);\n        self.setUintValue(INDEX, index);\n        return rowToDelete;\n    }\n    \n}\n\ncontract IAdminRepository {\n    \n    function isAdmin(address account) public view returns (bool);\n\n    function insertAdmin(address account) public;\n\n    function renounceAdmin() public;\n\n    function renounceAdminFrom(address account) public;\n\n}\n\ncontract AdminRepository is IAdminRepository, Mortal, Named(\"admin-repository\") {\n    \n    using AdminPersistence for AdminDatabase;\n\n    AdminDatabase private _adminDatabase;\n\n    modifier onlyAdmin {\n        require(isAdmin(msg.sender), \"Admin: only admin allowed\");\n        _;\n    }\n\n    constructor (address adminDatabase) public {\n        require(adminDatabase != address(0), \"Empty address not allowed\");\n        _adminDatabase = AdminDatabase(adminDatabase);\n    }\n\n    function initialize() public onlyOwner {\n        _insertAdmin(msg.sender);\n    }\n\n    function adminDatabase() public view returns (address) {\n        return address(_adminDatabase);\n    }\n\n    function isAdmin(address account) public view returns (bool) {\n        return _adminDatabase.isAdmin(account);\n    }\n\n    function insertAdmin(address account) public onlyAdmin {\n        _insertAdmin(account);\n    }\n\n    function renounceAdmin() public {\n        _renounceAdminFrom(msg.sender);\n    }\n\n    function renounceAdminFrom(address account) public onlyOwner {\n        _renounceAdminFrom(account);\n    }\n\n    function _renounceAdminFrom(address account) private {\n        _adminDatabase.remove(account);\n    }\n\n    function _insertAdmin(address account) private {\n        _adminDatabase.insertAdmin(account);\n    }\n\n}",
  "sourcePath": "/home/andrew/VsCodeProjects/VaultLogic/new-breath/contracts/admin/AdminRepository.sol",
  "compiler": {
    "name": "solc",
    "version": "0.4.25+commit.59dbf8f1.Emscripten.clang"
  },
  "schemaVersion": "3.0.9",
  "updatedAt": "2019-05-11T12:43:17.961Z",
  "devdoc": {
    "methods": {}
  },
  "userdoc": {
    "methods": {}
  }
}