{
  "contractName": "AdminRepository",
  "abi": [
    {
      "constant": true,
      "inputs": [],
      "name": "name",
      "outputs": [
        {
          "name": "",
          "type": "string"
        }
      ],
      "payable": false,
      "stateMutability": "view",
      "type": "function"
    },
    {
      "constant": false,
      "inputs": [],
      "name": "kill",
      "outputs": [],
      "payable": false,
      "stateMutability": "nonpayable",
      "type": "function"
    },
    {
      "constant": true,
      "inputs": [],
      "name": "owner",
      "outputs": [
        {
          "name": "",
          "type": "address"
        }
      ],
      "payable": false,
      "stateMutability": "view",
      "type": "function"
    },
    {
      "inputs": [
        {
          "name": "adminDatabase",
          "type": "address"
        }
      ],
      "payable": false,
      "stateMutability": "nonpayable",
      "type": "constructor"
    },
    {
      "constant": false,
      "inputs": [],
      "name": "initialize",
      "outputs": [],
      "payable": false,
      "stateMutability": "nonpayable",
      "type": "function"
    },
    {
      "constant": true,
      "inputs": [],
      "name": "adminDatabase",
      "outputs": [
        {
          "name": "",
          "type": "address"
        }
      ],
      "payable": false,
      "stateMutability": "view",
      "type": "function"
    },
    {
      "constant": true,
      "inputs": [
        {
          "name": "account",
          "type": "address"
        }
      ],
      "name": "isAdmin",
      "outputs": [
        {
          "name": "",
          "type": "bool"
        }
      ],
      "payable": false,
      "stateMutability": "view",
      "type": "function"
    },
    {
      "constant": false,
      "inputs": [
        {
          "name": "account",
          "type": "address"
        }
      ],
      "name": "insertAdmin",
      "outputs": [],
      "payable": false,
      "stateMutability": "nonpayable",
      "type": "function"
    },
    {
      "constant": false,
      "inputs": [],
      "name": "renounceAdmin",
      "outputs": [],
      "payable": false,
      "stateMutability": "nonpayable",
      "type": "function"
    },
    {
      "constant": false,
      "inputs": [
        {
          "name": "account",
          "type": "address"
        }
      ],
      "name": "renounceAdminFrom",
      "outputs": [],
      "payable": false,
      "stateMutability": "nonpayable",
      "type": "function"
    }
  ],
  "bytecode": "0x60806040523480156200001157600080fd5b5060405160208062002307833981018060405281019080805190602001909291905050506040805190810160405280601081526020017f61646d696e2d7265706f7369746f727900000000000000000000000000000000815250336000806101000a81548173ffffffffffffffffffffffffffffffffffffffff021916908373ffffffffffffffffffffffffffffffffffffffff1602179055508060019080519060200190620000c39291906200014a565b5050600073ffffffffffffffffffffffffffffffffffffffff168173ffffffffffffffffffffffffffffffffffffffff16141515156200010257600080fd5b80600260006101000a81548173ffffffffffffffffffffffffffffffffffffffff021916908373ffffffffffffffffffffffffffffffffffffffff16021790555050620001f9565b828054600181600116156101000203166002900490600052602060002090601f016020900481019282601f106200018d57805160ff1916838001178555620001be565b82800160010185558215620001be579182015b82811115620001bd578251825591602001919060010190620001a0565b5b509050620001cd9190620001d1565b5090565b620001f691905b80821115620001f2576000816000905550600101620001d8565b5090565b90565b6120fe80620002096000396000f300608060405260043610610099576000357c0100000000000000000000000000000000000000000000000000000000900463ffffffff16806306fdde031461009e57806324d7806c1461012e578063325b6ddb1461018957806341c0e1b5146101cc5780634922a80d146101e35780638129fc1c146102265780638bad0c0a1461023d5780638da5cb5b14610254578063b8f69c26146102ab575b600080fd5b3480156100aa57600080fd5b506100b3610302565b6040518080602001828103825283818151815260200191508051906020019080838360005b838110156100f35780820151818401526020810190506100d8565b50505050905090810190601f1680156101205780820380516001836020036101000a031916815260200191505b509250505060405180910390f35b34801561013a57600080fd5b5061016f600480360381019080803573ffffffffffffffffffffffffffffffffffffffff1690602001909291905050506103a4565b604051808215151515815260200191505060405180910390f35b34801561019557600080fd5b506101ca600480360381019080803573ffffffffffffffffffffffffffffffffffffffff1690602001909291905050506103f8565b005b3480156101d857600080fd5b506101e1610481565b005b3480156101ef57600080fd5b50610224600480360381019080803573ffffffffffffffffffffffffffffffffffffffff1690602001909291905050506104f6565b005b34801561023257600080fd5b5061023b61055d565b005b34801561024957600080fd5b506102526105c3565b005b34801561026057600080fd5b506102696105ce565b604051808273ffffffffffffffffffffffffffffffffffffffff1673ffffffffffffffffffffffffffffffffffffffff16815260200191505060405180910390f35b3480156102b757600080fd5b506102c06105f7565b604051808273ffffffffffffffffffffffffffffffffffffffff1673ffffffffffffffffffffffffffffffffffffffff16815260200191505060405180910390f35b606060018054600181600116156101000203166002900480601f01602080910402602001604051908101604052809291908181526020018280546001816001161561010002031660029004801561039a5780601f1061036f5761010080835404028352916020019161039a565b820191906000526020600020905b81548152906001019060200180831161037d57829003601f168201915b5050505050905090565b60006103f182600260009054906101000a900473ffffffffffffffffffffffffffffffffffffffff1673ffffffffffffffffffffffffffffffffffffffff1661062190919063ffffffff16565b9050919050565b610401336103a4565b1515610475576040517f08c379a00000000000000000000000000000000000000000000000000000000081526004018080602001828103825260198152602001807f41646d696e3a206f6e6c792061646d696e20616c6c6f7765640000000000000081525060200191505060405180910390fd5b61047e81610c2d565b50565b6000809054906101000a900473ffffffffffffffffffffffffffffffffffffffff1673ffffffffffffffffffffffffffffffffffffffff163373ffffffffffffffffffffffffffffffffffffffff161415156104dc57600080fd5b600073ffffffffffffffffffffffffffffffffffffffff16ff5b6000809054906101000a900473ffffffffffffffffffffffffffffffffffffffff1673ffffffffffffffffffffffffffffffffffffffff163373ffffffffffffffffffffffffffffffffffffffff1614151561055157600080fd5b61055a81610c7c565b50565b6000809054906101000a900473ffffffffffffffffffffffffffffffffffffffff1673ffffffffffffffffffffffffffffffffffffffff163373ffffffffffffffffffffffffffffffffffffffff161415156105b857600080fd5b6105c133610c2d565b565b6105cc33610c7c565b565b60008060009054906101000a900473ffffffffffffffffffffffffffffffffffffffff16905090565b6000600260009054906101000a900473ffffffffffffffffffffffffffffffffffffffff16905090565b600080600073ffffffffffffffffffffffffffffffffffffffff168373ffffffffffffffffffffffffffffffffffffffff161415151561066057600080fd5b60008473ffffffffffffffffffffffffffffffffffffffff1663e82617fb6040805190810160405280600b81526020017f61646d696e2e696e6465780000000000000000000000000000000000000000008152506040516020018080602001828103825283818151815260200191508051906020019080838360005b838110156106f75780820151818401526020810190506106dc565b50505050905090810190601f1680156107245780820380516001836020036101000a031916815260200191505b50925050506040516020818303038152906040526040518082805190602001908083835b60208310151561076d5780518252602082019150602081019050602083039250610748565b6001836020036101000a03801982511681845116808217855250505050505090500191505060405180910390206040518263ffffffff167c0100000000000000000000000000000000000000000000000000000000028152600401808260001916600019168152602001915050602060405180830381600087803b1580156107f457600080fd5b505af1158015610808573d6000803e3d6000fd5b505050506040513d602081101561081e57600080fd5b8101908080519060200190929190505050141561083e5760009150610c26565b8373ffffffffffffffffffffffffffffffffffffffff1663e82617fb6040805190810160405280600b81526020017f61646d696e2e696e646578000000000000000000000000000000000000000000815250856040516020018083805190602001908083835b6020831015156108c957805182526020820191506020810190506020830392506108a4565b6001836020036101000a0380198251168184511680821785525050505050509050018273ffffffffffffffffffffffffffffffffffffffff1673ffffffffffffffffffffffffffffffffffffffff166c01000000000000000000000000028152601401925050506040516020818303038152906040526040518082805190602001908083835b602083101515610974578051825260208201915060208101905060208303925061094f565b6001836020036101000a03801982511681845116808217855250505050505090500191505060405180910390206040518263ffffffff167c0100000000000000000000000000000000000000000000000000000000028152600401808260001916600019168152602001915050602060405180830381600087803b1580156109fb57600080fd5b505af1158015610a0f573d6000803e3d6000fd5b505050506040513d6020811015610a2557600080fd5b810190808051906020019092919050505090508273ffffffffffffffffffffffffffffffffffffffff168473ffffffffffffffffffffffffffffffffffffffff16634c77e5ba6040805190810160405280600b81526020017f61646d696e2e696e646578000000000000000000000000000000000000000000815250846040516020018083805190602001908083835b602083101515610ada5780518252602082019150602081019050602083039250610ab5565b6001836020036101000a038019825116818451168082178552505050505050905001828152602001925050506040516020818303038152906040526040518082805190602001908083835b602083101515610b4a5780518252602082019150602081019050602083039250610b25565b6001836020036101000a03801982511681845116808217855250505050505090500191505060405180910390206040518263ffffffff167c0100000000000000000000000000000000000000000000000000000000028152600401808260001916600019168152602001915050602060405180830381600087803b158015610bd157600080fd5b505af1158015610be5573d6000803e3d6000fd5b505050506040513d6020811015610bfb57600080fd5b810190808051906020019092919050505073ffffffffffffffffffffffffffffffffffffffff161491505b5092915050565b610c7881600260009054906101000a900473ffffffffffffffffffffffffffffffffffffffff1673ffffffffffffffffffffffffffffffffffffffff16610ccb90919063ffffffff16565b5050565b610cc781600260009054906101000a900473ffffffffffffffffffffffffffffffffffffffff1673ffffffffffffffffffffffffffffffffffffffff166114ef90919063ffffffff16565b5050565b6000610cd78383610621565b156040805190810160405280602081526020017f41646d696e50657273697374656e63653a20616c726561647920657869737473815250901515610db6576040517f08c379a00000000000000000000000000000000000000000000000000000000081526004018080602001828103825283818151815260200191508051906020019080838360005b83811015610d7b578082015181840152602081019050610d60565b50505050905090810190601f168015610da85780820380516001836020036101000a031916815260200191505b509250505060405180910390fd5b508273ffffffffffffffffffffffffffffffffffffffff1663e82617fb6040805190810160405280600b81526020017f61646d696e2e696e6465780000000000000000000000000000000000000000008152506040516020018080602001828103825283818151815260200191508051906020019080838360005b83811015610e4c578082015181840152602081019050610e31565b50505050905090810190601f168015610e795780820380516001836020036101000a031916815260200191505b50925050506040516020818303038152906040526040518082805190602001908083835b602083101515610ec25780518252602082019150602081019050602083039250610e9d565b6001836020036101000a03801982511681845116808217855250505050505090500191505060405180910390206040518263ffffffff167c0100000000000000000000000000000000000000000000000000000000028152600401808260001916600019168152602001915050602060405180830381600087803b158015610f4957600080fd5b505af1158015610f5d573d6000803e3d6000fd5b505050506040513d6020811015610f7357600080fd5b810190808051906020019092919050505090508273ffffffffffffffffffffffffffffffffffffffff1663ffb4f6236040805190810160405280600b81526020017f61646d696e2e696e646578000000000000000000000000000000000000000000815250846040516020018083805190602001908083835b6020831015156110115780518252602082019150602081019050602083039250610fec565b6001836020036101000a0380198251168184511680821785525050505050509050018273ffffffffffffffffffffffffffffffffffffffff1673ffffffffffffffffffffffffffffffffffffffff166c01000000000000000000000000028152601401925050506040516020818303038152906040526040518082805190602001908083835b6020831015156110bc5780518252602082019150602081019050602083039250611097565b6001836020036101000a0380198251168184511680821785525050505050509050019150506040518091039020836040518363ffffffff167c010000000000000000000000000000000000000000000000000000000002815260040180836000191660001916815260200182815260200192505050600060405180830381600087803b15801561114b57600080fd5b505af115801561115f573d6000803e3d6000fd5b505050508273ffffffffffffffffffffffffffffffffffffffff16635a2bf25a6040805190810160405280600b81526020017f61646d696e2e696e646578000000000000000000000000000000000000000000815250836040516020018083805190602001908083835b6020831015156111ee57805182526020820191506020810190506020830392506111c9565b6001836020036101000a038019825116818451168082178552505050505050905001828152602001925050506040516020818303038152906040526040518082805190602001908083835b60208310151561125e5780518252602082019150602081019050602083039250611239565b6001836020036101000a0380198251168184511680821785525050505050509050019150506040518091039020846040518363ffffffff167c01000000000000000000000000000000000000000000000000000000000281526004018083600019166000191681526020018273ffffffffffffffffffffffffffffffffffffffff1673ffffffffffffffffffffffffffffffffffffffff16815260200192505050600060405180830381600087803b15801561131957600080fd5b505af115801561132d573d6000803e3d6000fd5b505050508273ffffffffffffffffffffffffffffffffffffffff1663ffb4f6236040805190810160405280600b81526020017f61646d696e2e696e6465780000000000000000000000000000000000000000008152506040516020018080602001828103825283818151815260200191508051906020019080838360005b838110156113c65780820151818401526020810190506113ab565b50505050905090810190601f1680156113f35780820380516001836020036101000a031916815260200191505b50925050506040516020818303038152906040526040518082805190602001908083835b60208310151561143c5780518252602082019150602081019050602083039250611417565b6001836020036101000a0380198251168184511680821785525050505050509050019150506040518091039020600184016040518363ffffffff167c010000000000000000000000000000000000000000000000000000000002815260040180836000191660001916815260200182815260200192505050600060405180830381600087803b1580156114ce57600080fd5b505af11580156114e2573d6000803e3d6000fd5b5050505080905092915050565b6000806000806114ff8686610621565b6040805190810160405280601c81526020017f41646d696e50657273697374656e63653a206e6f7420657869737473000000008152509015156115dd576040517f08c379a00000000000000000000000000000000000000000000000000000000081526004018080602001828103825283818151815260200191508051906020019080838360005b838110156115a2578082015181840152602081019050611587565b50505050905090810190601f1680156115cf5780820380516001836020036101000a031916815260200191505b509250505060405180910390fd5b508573ffffffffffffffffffffffffffffffffffffffff1663e82617fb6040805190810160405280600b81526020017f61646d696e2e696e646578000000000000000000000000000000000000000000815250876040516020018083805190602001908083835b6020831015156116695780518252602082019150602081019050602083039250611644565b6001836020036101000a0380198251168184511680821785525050505050509050018273ffffffffffffffffffffffffffffffffffffffff1673ffffffffffffffffffffffffffffffffffffffff166c01000000000000000000000000028152601401925050506040516020818303038152906040526040518082805190602001908083835b60208310151561171457805182526020820191506020810190506020830392506116ef565b6001836020036101000a03801982511681845116808217855250505050505090500191505060405180910390206040518263ffffffff167c0100000000000000000000000000000000000000000000000000000000028152600401808260001916600019168152602001915050602060405180830381600087803b15801561179b57600080fd5b505af11580156117af573d6000803e3d6000fd5b505050506040513d60208110156117c557600080fd5b8101908080519060200190929190505050925060018673ffffffffffffffffffffffffffffffffffffffff1663e82617fb6040805190810160405280600b81526020017f61646d696e2e696e6465780000000000000000000000000000000000000000008152506040516020018080602001828103825283818151815260200191508051906020019080838360005b8381101561186f578082015181840152602081019050611854565b50505050905090810190601f16801561189c5780820380516001836020036101000a031916815260200191505b50925050506040516020818303038152906040526040518082805190602001908083835b6020831015156118e557805182526020820191506020810190506020830392506118c0565b6001836020036101000a03801982511681845116808217855250505050505090500191505060405180910390206040518263ffffffff167c0100000000000000000000000000000000000000000000000000000000028152600401808260001916600019168152602001915050602060405180830381600087803b15801561196c57600080fd5b505af1158015611980573d6000803e3d6000fd5b505050506040513d602081101561199657600080fd5b81019080805190602001909291905050500391508573ffffffffffffffffffffffffffffffffffffffff16634c77e5ba6040805190810160405280600b81526020017f61646d696e2e696e646578000000000000000000000000000000000000000000815250846040516020018083805190602001908083835b602083101515611a355780518252602082019150602081019050602083039250611a10565b6001836020036101000a038019825116818451168082178552505050505050905001828152602001925050506040516020818303038152906040526040518082805190602001908083835b602083101515611aa55780518252602082019150602081019050602083039250611a80565b6001836020036101000a03801982511681845116808217855250505050505090500191505060405180910390206040518263ffffffff167c0100000000000000000000000000000000000000000000000000000000028152600401808260001916600019168152602001915050602060405180830381600087803b158015611b2c57600080fd5b505af1158015611b40573d6000803e3d6000fd5b505050506040513d6020811015611b5657600080fd5b810190808051906020019092919050505090508573ffffffffffffffffffffffffffffffffffffffff16635a2bf25a6040805190810160405280600b81526020017f61646d696e2e696e646578000000000000000000000000000000000000000000815250856040516020018083805190602001908083835b602083101515611bf45780518252602082019150602081019050602083039250611bcf565b6001836020036101000a038019825116818451168082178552505050505050905001828152602001925050506040516020818303038152906040526040518082805190602001908083835b602083101515611c645780518252602082019150602081019050602083039250611c3f565b6001836020036101000a0380198251168184511680821785525050505050509050019150506040518091039020836040518363ffffffff167c01000000000000000000000000000000000000000000000000000000000281526004018083600019166000191681526020018273ffffffffffffffffffffffffffffffffffffffff1673ffffffffffffffffffffffffffffffffffffffff16815260200192505050600060405180830381600087803b158015611d1f57600080fd5b505af1158015611d33573d6000803e3d6000fd5b505050508573ffffffffffffffffffffffffffffffffffffffff1663ffb4f6236040805190810160405280600b81526020017f61646d696e2e696e646578000000000000000000000000000000000000000000815250836040516020018083805190602001908083835b602083101515611dc25780518252602082019150602081019050602083039250611d9d565b6001836020036101000a0380198251168184511680821785525050505050509050018273ffffffffffffffffffffffffffffffffffffffff1673ffffffffffffffffffffffffffffffffffffffff166c01000000000000000000000000028152601401925050506040516020818303038152906040526040518082805190602001908083835b602083101515611e6d5780518252602082019150602081019050602083039250611e48565b6001836020036101000a0380198251168184511680821785525050505050509050019150506040518091039020856040518363ffffffff167c010000000000000000000000000000000000000000000000000000000002815260040180836000191660001916815260200182815260200192505050600060405180830381600087803b158015611efc57600080fd5b505af1158015611f10573d6000803e3d6000fd5b505050508573ffffffffffffffffffffffffffffffffffffffff1663ffb4f6236040805190810160405280600b81526020017f61646d696e2e696e6465780000000000000000000000000000000000000000008152506040516020018080602001828103825283818151815260200191508051906020019080838360005b83811015611fa9578082015181840152602081019050611f8e565b50505050905090810190601f168015611fd65780820380516001836020036101000a031916815260200191505b50925050506040516020818303038152906040526040518082805190602001908083835b60208310151561201f5780518252602082019150602081019050602083039250611ffa565b6001836020036101000a0380198251168184511680821785525050505050509050019150506040518091039020846040518363ffffffff167c010000000000000000000000000000000000000000000000000000000002815260040180836000191660001916815260200182815260200192505050600060405180830381600087803b1580156120ae57600080fd5b505af11580156120c2573d6000803e3d6000fd5b50505050829350505050929150505600a165627a7a72305820a340dcd6d15654d7641470d47dbff4113ec0d587ff6f920dd11e5437414855370029",
  "source": "pragma solidity 0.4.25;\n\nimport './../common/Named.sol';\nimport './../common/Mortal.sol';\nimport {AdminPersistence, AdminDatabase} from './AdminPersistence.sol';\n\ncontract IAdminRepository {\n    \n    function isAdmin(address account) public view returns (bool);\n\n    function insertAdmin(address account) public;\n\n    function renounceAdmin() public;\n\n    function renounceAdminFrom(address account) public;\n\n}\n\ncontract AdminRepository is IAdminRepository, Mortal, Named('admin-repository') {\n    \n    using AdminPersistence for AdminDatabase;\n\n    AdminDatabase private _adminDatabase;\n\n    modifier onlyAdmin {\n        require(isAdmin(msg.sender), 'Admin: only admin allowed');\n        _;\n    }\n\n    constructor (address adminDatabase) public {\n        require(adminDatabase != address(0));\n        _adminDatabase = AdminDatabase(adminDatabase);\n    }\n\n    function initialize() public onlyOwner {\n        _insertAdmin(msg.sender);\n    }\n\n    function adminDatabase() public view returns (address) {\n        return address(_adminDatabase);\n    }\n\n    function isAdmin(address account) public view returns (bool) {\n        return _adminDatabase.isAdmin(account);\n    }\n\n    function insertAdmin(address account) public onlyAdmin {\n        _insertAdmin(account);\n    }\n\n    function renounceAdmin() public {\n        _renounceAdminFrom(msg.sender);\n    }\n\n    function renounceAdminFrom(address account) public onlyOwner {\n        _renounceAdminFrom(account);\n    }\n\n    function _renounceAdminFrom(address account) private {\n        _adminDatabase.remove(account);\n    }\n\n    function _insertAdmin(address account) private {\n        _adminDatabase.insertAdmin(account);\n    }\n\n}",
  "sourcePath": "/home/andrew/TruffleProjects/VaultLogic 2.0/contracts/admin/AdminRepository.sol",
  "compiler": {
    "name": "solc",
    "version": "0.4.25+commit.59dbf8f1.Emscripten.clang"
  },
  "schemaVersion": "2.0.2",
  "updatedAt": "2019-05-08T14:55:15.626Z"
}