{
  "contractName": "Context",
  "abi": [
    {
      "constant": true,
      "inputs": [],
      "name": "owner",
      "outputs": [
        {
          "name": "",
          "type": "address"
        }
      ],
      "payable": false,
      "stateMutability": "view",
      "type": "function"
    },
    {
      "inputs": [
        {
          "name": "contextDatabase",
          "type": "address"
        }
      ],
      "payable": false,
      "stateMutability": "nonpayable",
      "type": "constructor"
    },
    {
      "constant": false,
      "inputs": [
        {
          "name": "namedContract",
          "type": "address"
        }
      ],
      "name": "register",
      "outputs": [],
      "payable": false,
      "stateMutability": "nonpayable",
      "type": "function"
    },
    {
      "constant": true,
      "inputs": [
        {
          "name": "name",
          "type": "string"
        }
      ],
      "name": "get",
      "outputs": [
        {
          "name": "contractAddress",
          "type": "address"
        }
      ],
      "payable": false,
      "stateMutability": "view",
      "type": "function"
    },
    {
      "constant": true,
      "inputs": [],
      "name": "contextDatabase",
      "outputs": [
        {
          "name": "",
          "type": "address"
        }
      ],
      "payable": false,
      "stateMutability": "view",
      "type": "function"
    }
  ],
  "bytecode": "0x608060405234801561001057600080fd5b506040516020806109e883398101806040528101908080519060200190929190505050336000806101000a81548173ffffffffffffffffffffffffffffffffffffffff021916908373ffffffffffffffffffffffffffffffffffffffff160217905550600073ffffffffffffffffffffffffffffffffffffffff168173ffffffffffffffffffffffffffffffffffffffff16141515156100af57600080fd5b80600160006101000a81548173ffffffffffffffffffffffffffffffffffffffff021916908373ffffffffffffffffffffffffffffffffffffffff160217905550506108e8806101006000396000f300608060405260043610610062576000357c0100000000000000000000000000000000000000000000000000000000900463ffffffff1680634420e486146100675780635e46f751146100aa578063693ec85e146101015780638da5cb5b1461017c575b600080fd5b34801561007357600080fd5b506100a8600480360381019080803573ffffffffffffffffffffffffffffffffffffffff1690602001909291905050506101d3565b005b3480156100b657600080fd5b506100bf610372565b604051808273ffffffffffffffffffffffffffffffffffffffff1673ffffffffffffffffffffffffffffffffffffffff16815260200191505060405180910390f35b34801561010d57600080fd5b5061013a60048036038101908080359060200190820180359060200191909192939192939050505061039c565b604051808273ffffffffffffffffffffffffffffffffffffffff1673ffffffffffffffffffffffffffffffffffffffff16815260200191505060405180910390f35b34801561018857600080fd5b50610191610423565b604051808273ffffffffffffffffffffffffffffffffffffffff1673ffffffffffffffffffffffffffffffffffffffff16815260200191505060405180910390f35b6000809054906101000a900473ffffffffffffffffffffffffffffffffffffffff1673ffffffffffffffffffffffffffffffffffffffff163373ffffffffffffffffffffffffffffffffffffffff1614151561022e57600080fd5b61036f818273ffffffffffffffffffffffffffffffffffffffff166306fdde036040518163ffffffff167c0100000000000000000000000000000000000000000000000000000000028152600401600060405180830381600087803b15801561029657600080fd5b505af11580156102aa573d6000803e3d6000fd5b505050506040513d6000823e3d601f19601f8201168201806040525060208110156102d457600080fd5b8101908080516401000000008111156102ec57600080fd5b8281019050602081018481111561030257600080fd5b815185600182028301116401000000008211171561031f57600080fd5b5050929190505050600160009054906101000a900473ffffffffffffffffffffffffffffffffffffffff1673ffffffffffffffffffffffffffffffffffffffff1661044c9092919063ffffffff16565b50565b6000600160009054906101000a900473ffffffffffffffffffffffffffffffffffffffff16905090565b600061041b83838080601f016020809104026020016040519081016040528093929190818152602001838380828437820191505050505050600160009054906101000a900473ffffffffffffffffffffffffffffffffffffffff1673ffffffffffffffffffffffffffffffffffffffff166106a890919063ffffffff16565b905092915050565b60008060009054906101000a900473ffffffffffffffffffffffffffffffffffffffff16905090565b600073ffffffffffffffffffffffffffffffffffffffff168273ffffffffffffffffffffffffffffffffffffffff161415151561048857600080fd5b8273ffffffffffffffffffffffffffffffffffffffff16635a2bf25a6040805190810160405280601081526020017f636f6e74726163742e6164647265737300000000000000000000000000000000815250836040516020018083805190602001908083835b60208310151561051357805182526020820191506020810190506020830392506104ee565b6001836020036101000a03801982511681845116808217855250505050505090500182805190602001908083835b6020831015156105665780518252602082019150602081019050602083039250610541565b6001836020036101000a038019825116818451168082178552505050505050905001925050506040516020818303038152906040526040518082805190602001908083835b6020831015156105d057805182526020820191506020810190506020830392506105ab565b6001836020036101000a0380198251168184511680821785525050505050509050019150506040518091039020846040518363ffffffff167c01000000000000000000000000000000000000000000000000000000000281526004018083600019166000191681526020018273ffffffffffffffffffffffffffffffffffffffff1673ffffffffffffffffffffffffffffffffffffffff16815260200192505050600060405180830381600087803b15801561068b57600080fd5b505af115801561069f573d6000803e3d6000fd5b50505050505050565b60008273ffffffffffffffffffffffffffffffffffffffff16634c77e5ba6040805190810160405280601081526020017f636f6e74726163742e6164647265737300000000000000000000000000000000815250846040516020018083805190602001908083835b6020831015156107355780518252602082019150602081019050602083039250610710565b6001836020036101000a03801982511681845116808217855250505050505090500182805190602001908083835b6020831015156107885780518252602082019150602081019050602083039250610763565b6001836020036101000a038019825116818451168082178552505050505050905001925050506040516020818303038152906040526040518082805190602001908083835b6020831015156107f257805182526020820191506020810190506020830392506107cd565b6001836020036101000a03801982511681845116808217855250505050505090500191505060405180910390206040518263ffffffff167c0100000000000000000000000000000000000000000000000000000000028152600401808260001916600019168152602001915050602060405180830381600087803b15801561087957600080fd5b505af115801561088d573d6000803e3d6000fd5b505050506040513d60208110156108a357600080fd5b81019080805190602001909291905050509050929150505600a165627a7a723058207714a978033178ff3c65d4362351ec4223db302ad4d8f7d61b5d8dd54cb352380029",
  "source": "pragma solidity 0.4.25;\n\nimport './Named.sol';\nimport './Owned.sol';\nimport {Database} from './Database.sol';\n\ncontract ContextDatabase is Database {}\n\nlibrary ContextPersistence {\n    \n    string constant CONTRACT_ADDRESS = 'contract.address';\n    \n    function setContract(ContextDatabase self, address contractAddress, string memory contractName) internal {\n        require(contractAddress != address(0));\n        self.setAddressValue(keccak256(abi.encodePacked(CONTRACT_ADDRESS, contractName)), contractAddress);\n    }\n    \n    function getContract(ContextDatabase self, string memory contractName) internal view returns (address) {\n        return self.getAddressValue(keccak256(abi.encodePacked(CONTRACT_ADDRESS, contractName)));\n    }\n    \n}\n\ninterface IContext {\n    \n    function register(Named namedContract) external;\n\n    function get(string name) external view returns (address contractAddress);\n\n}\n\ncontract Context is IContext, Owned {\n    \n    using ContextPersistence for ContextDatabase;\n    \n    ContextDatabase private _contextDatabase;\n    \n    constructor (address contextDatabase) public {\n        require(contextDatabase != address(0));\n        _contextDatabase = ContextDatabase(contextDatabase);\n    }\n    \n    function register(Named namedContract) external onlyOwner {\n        _contextDatabase.setContract(address(namedContract), namedContract.name());\n    }\n    \n    function get(string name) external view returns (address contractAddress) {\n        return _contextDatabase.getContract(name);\n    }\n\n    function contextDatabase() public view returns (address) {\n        return _contextDatabase;\n    }\n\n}",
  "sourcePath": "/home/andrew/TruffleProjects/VaultLogic 2.0/contracts/common/Context.sol",
  "compiler": {
    "name": "solc",
    "version": "0.4.25+commit.59dbf8f1.Emscripten.clang"
  },
  "schemaVersion": "2.0.2",
  "updatedAt": "2019-05-08T14:55:15.637Z"
}