{
  "contractName": "ContextDatabase",
  "abi": [
    {
      "constant": true,
      "inputs": [
        {
          "name": "_key",
          "type": "bytes32"
        }
      ],
      "name": "getBytes32Value",
      "outputs": [
        {
          "name": "",
          "type": "bytes32"
        }
      ],
      "payable": false,
      "stateMutability": "view",
      "type": "function"
    },
    {
      "constant": false,
      "inputs": [
        {
          "name": "_key",
          "type": "bytes32"
        }
      ],
      "name": "deleteAddressValue",
      "outputs": [],
      "payable": false,
      "stateMutability": "nonpayable",
      "type": "function"
    },
    {
      "constant": false,
      "inputs": [
        {
          "name": "_key",
          "type": "bytes32"
        }
      ],
      "name": "deleteBytesValue",
      "outputs": [],
      "payable": false,
      "stateMutability": "nonpayable",
      "type": "function"
    },
    {
      "constant": false,
      "inputs": [
        {
          "name": "_key",
          "type": "bytes32"
        }
      ],
      "name": "deleteBytes32Value",
      "outputs": [],
      "payable": false,
      "stateMutability": "nonpayable",
      "type": "function"
    },
    {
      "constant": true,
      "inputs": [
        {
          "name": "_key",
          "type": "bytes32"
        }
      ],
      "name": "getBooleanValue",
      "outputs": [
        {
          "name": "",
          "type": "bool"
        }
      ],
      "payable": false,
      "stateMutability": "view",
      "type": "function"
    },
    {
      "constant": false,
      "inputs": [
        {
          "name": "_key",
          "type": "bytes32"
        },
        {
          "name": "_value",
          "type": "bytes32"
        }
      ],
      "name": "setBytes32Value",
      "outputs": [],
      "payable": false,
      "stateMutability": "nonpayable",
      "type": "function"
    },
    {
      "constant": false,
      "inputs": [
        {
          "name": "_key",
          "type": "bytes32"
        }
      ],
      "name": "deleteBooleanValue",
      "outputs": [],
      "payable": false,
      "stateMutability": "nonpayable",
      "type": "function"
    },
    {
      "constant": false,
      "inputs": [
        {
          "name": "_key",
          "type": "bytes32"
        },
        {
          "name": "_value",
          "type": "bool"
        }
      ],
      "name": "setBooleanValue",
      "outputs": [],
      "payable": false,
      "stateMutability": "nonpayable",
      "type": "function"
    },
    {
      "constant": true,
      "inputs": [
        {
          "name": "_key",
          "type": "bytes32"
        }
      ],
      "name": "getBytesValue",
      "outputs": [
        {
          "name": "",
          "type": "bytes"
        }
      ],
      "payable": false,
      "stateMutability": "view",
      "type": "function"
    },
    {
      "constant": true,
      "inputs": [
        {
          "name": "_key",
          "type": "bytes32"
        }
      ],
      "name": "getAddressValue",
      "outputs": [
        {
          "name": "",
          "type": "address"
        }
      ],
      "payable": false,
      "stateMutability": "view",
      "type": "function"
    },
    {
      "constant": false,
      "inputs": [
        {
          "name": "_key",
          "type": "bytes32"
        },
        {
          "name": "_value",
          "type": "address"
        }
      ],
      "name": "setAddressValue",
      "outputs": [],
      "payable": false,
      "stateMutability": "nonpayable",
      "type": "function"
    },
    {
      "constant": false,
      "inputs": [
        {
          "name": "_key",
          "type": "bytes32"
        }
      ],
      "name": "deleteIntValue",
      "outputs": [],
      "payable": false,
      "stateMutability": "nonpayable",
      "type": "function"
    },
    {
      "constant": true,
      "inputs": [],
      "name": "owner",
      "outputs": [
        {
          "name": "",
          "type": "address"
        }
      ],
      "payable": false,
      "stateMutability": "view",
      "type": "function"
    },
    {
      "constant": true,
      "inputs": [
        {
          "name": "_key",
          "type": "bytes32"
        }
      ],
      "name": "getIntValue",
      "outputs": [
        {
          "name": "",
          "type": "int256"
        }
      ],
      "payable": false,
      "stateMutability": "view",
      "type": "function"
    },
    {
      "constant": true,
      "inputs": [
        {
          "name": "_key",
          "type": "bytes32"
        }
      ],
      "name": "getStringValue",
      "outputs": [
        {
          "name": "",
          "type": "string"
        }
      ],
      "payable": false,
      "stateMutability": "view",
      "type": "function"
    },
    {
      "constant": false,
      "inputs": [
        {
          "name": "_key",
          "type": "bytes32"
        },
        {
          "name": "_value",
          "type": "int256"
        }
      ],
      "name": "setIntValue",
      "outputs": [],
      "payable": false,
      "stateMutability": "nonpayable",
      "type": "function"
    },
    {
      "constant": false,
      "inputs": [
        {
          "name": "_key",
          "type": "bytes32"
        }
      ],
      "name": "deleteStringValue",
      "outputs": [],
      "payable": false,
      "stateMutability": "nonpayable",
      "type": "function"
    },
    {
      "constant": false,
      "inputs": [
        {
          "name": "_key",
          "type": "bytes32"
        },
        {
          "name": "_value",
          "type": "bytes"
        }
      ],
      "name": "setBytesValue",
      "outputs": [],
      "payable": false,
      "stateMutability": "nonpayable",
      "type": "function"
    },
    {
      "constant": false,
      "inputs": [
        {
          "name": "_key",
          "type": "bytes32"
        }
      ],
      "name": "deleteUintValue",
      "outputs": [],
      "payable": false,
      "stateMutability": "nonpayable",
      "type": "function"
    },
    {
      "constant": true,
      "inputs": [
        {
          "name": "_key",
          "type": "bytes32"
        }
      ],
      "name": "getUintValue",
      "outputs": [
        {
          "name": "",
          "type": "uint256"
        }
      ],
      "payable": false,
      "stateMutability": "view",
      "type": "function"
    },
    {
      "constant": true,
      "inputs": [],
      "name": "repository",
      "outputs": [
        {
          "name": "",
          "type": "address"
        }
      ],
      "payable": false,
      "stateMutability": "view",
      "type": "function"
    },
    {
      "constant": false,
      "inputs": [
        {
          "name": "repository",
          "type": "address"
        }
      ],
      "name": "setRepository",
      "outputs": [],
      "payable": false,
      "stateMutability": "nonpayable",
      "type": "function"
    },
    {
      "constant": false,
      "inputs": [
        {
          "name": "_key",
          "type": "bytes32"
        },
        {
          "name": "_value",
          "type": "string"
        }
      ],
      "name": "setStringValue",
      "outputs": [],
      "payable": false,
      "stateMutability": "nonpayable",
      "type": "function"
    },
    {
      "constant": false,
      "inputs": [
        {
          "name": "_key",
          "type": "bytes32"
        },
        {
          "name": "_value",
          "type": "uint256"
        }
      ],
      "name": "setUintValue",
      "outputs": [],
      "payable": false,
      "stateMutability": "nonpayable",
      "type": "function"
    }
  ],
  "bytecode": "0x608060405260008054600160a060020a03191633179055611046806100256000396000f30060806040526004361061013d5763ffffffff7c0100000000000000000000000000000000000000000000000000000000600035041663025ec81a8114610142578063043106c01461016c5780630c55d92514610186578063124f24181461019e57806317e7dd22146101b657806325cf512d146101e25780633cc1635c146101fd5780633eba9ed21461021557806344bfa56e146102325780634c77e5ba146102bf5780635a2bf25a146102f35780638267a9ee146103175780638da5cb5b1461032f5780639007127b14610344578063a209a29c1461035c578063a77aa49e14610374578063ba69fcaa1461038f578063c9a52d2c146103a7578063e4f3023114610405578063e82617fb1461041d578063e9176c6014610435578063eaa32e3c1461044a578063f58660661461046b578063ffb4f623146104c9575b600080fd5b34801561014e57600080fd5b5061015a6004356104e4565b60408051918252519081900360200190f35b34801561017857600080fd5b506101846004356104f6565b005b34801561019257600080fd5b50610184600435610596565b3480156101aa57600080fd5b50610184600435610625565b3480156101c257600080fd5b506101ce6004356106ab565b604080519115158252519081900360200190f35b3480156101ee57600080fd5b506101846004356024356106c0565b34801561020957600080fd5b50610184600435610747565b34801561022157600080fd5b5061018460043560243515156107d4565b34801561023e57600080fd5b5061024a600435610869565b6040805160208082528351818301528351919283929083019185019080838360005b8381101561028457818101518382015260200161026c565b50505050905090810190601f1680156102b15780820380516001836020036101000a031916815260200191505b509250505060405180910390f35b3480156102cb57600080fd5b506102d760043561090a565b60408051600160a060020a039092168252519081900360200190f35b3480156102ff57600080fd5b50610184600435600160a060020a0360243516610925565b34801561032357600080fd5b506101846004356109d5565b34801561033b57600080fd5b506102d7610a5b565b34801561035057600080fd5b5061015a600435610a6b565b34801561036857600080fd5b5061024a600435610a7d565b34801561038057600080fd5b50610184600435602435610ae5565b34801561039b57600080fd5b50610184600435610b6c565b3480156103b357600080fd5b5060408051602060046024803582810135601f8101859004850286018501909652858552610184958335953695604494919390910191908190840183828082843750949750610bf89650505050505050565b34801561041157600080fd5b50610184600435610c91565b34801561042957600080fd5b5061015a600435610d17565b34801561044157600080fd5b506102d7610d29565b34801561045657600080fd5b50610184600160a060020a0360043516610d38565b34801561047757600080fd5b5060408051602060046024803582810135601f8101859004850286018501909652858552610184958335953695604494919390910191908190840183828082843750949750610e039650505050505050565b3480156104d557600080fd5b50610184600435602435610e97565b60009081526005602052604090205490565b600854600160a060020a03161580159061051a5750600854600160a060020a031633145b151561056b576040805160e560020a62461bcd0281526020600482015260216024820152600080516020610ffb833981519152604482015260fa60020a601902606482015290519081900360840190fd5b6000908152600360205260409020805473ffffffffffffffffffffffffffffffffffffffff19169055565b600854600160a060020a0316158015906105ba5750600854600160a060020a031633145b151561060b576040805160e560020a62461bcd0281526020600482015260216024820152600080516020610ffb833981519152604482015260fa60020a601902606482015290519081900360840190fd5b600081815260046020526040812061062291610f1e565b50565b600854600160a060020a0316158015906106495750600854600160a060020a031633145b151561069a576040805160e560020a62461bcd0281526020600482015260216024820152600080516020610ffb833981519152604482015260fa60020a601902606482015290519081900360840190fd5b600090815260056020526040812055565b60009081526006602052604090205460ff1690565b600854600160a060020a0316158015906106e45750600854600160a060020a031633145b1515610735576040805160e560020a62461bcd0281526020600482015260216024820152600080516020610ffb833981519152604482015260fa60020a601902606482015290519081900360840190fd5b60009182526005602052604090912055565b600854600160a060020a03161580159061076b5750600854600160a060020a031633145b15156107bc576040805160e560020a62461bcd0281526020600482015260216024820152600080516020610ffb833981519152604482015260fa60020a601902606482015290519081900360840190fd5b6000908152600660205260409020805460ff19169055565b600854600160a060020a0316158015906107f85750600854600160a060020a031633145b1515610849576040805160e560020a62461bcd0281526020600482015260216024820152600080516020610ffb833981519152604482015260fa60020a601902606482015290519081900360840190fd5b600091825260066020526040909120805460ff1916911515919091179055565b60008181526004602090815260409182902080548351601f60026101006001851615026000190190931692909204918201849004840281018401909452808452606093928301828280156108fe5780601f106108d3576101008083540402835291602001916108fe565b820191906000526020600020905b8154815290600101906020018083116108e157829003601f168201915b50505050509050919050565b600090815260036020526040902054600160a060020a031690565b600854600160a060020a0316158015906109495750600854600160a060020a031633145b151561099a576040805160e560020a62461bcd0281526020600482015260216024820152600080516020610ffb833981519152604482015260fa60020a601902606482015290519081900360840190fd5b600091825260036020526040909120805473ffffffffffffffffffffffffffffffffffffffff1916600160a060020a03909216919091179055565b600854600160a060020a0316158015906109f95750600854600160a060020a031633145b1515610a4a576040805160e560020a62461bcd0281526020600482015260216024820152600080516020610ffb833981519152604482015260fa60020a601902606482015290519081900360840190fd5b600090815260076020526040812055565b600054600160a060020a03165b90565b60009081526007602052604090205490565b600081815260026020818152604092839020805484516000196001831615610100020190911693909304601f810183900483028401830190945283835260609390918301828280156108fe5780601f106108d3576101008083540402835291602001916108fe565b600854600160a060020a031615801590610b095750600854600160a060020a031633145b1515610b5a576040805160e560020a62461bcd0281526020600482015260216024820152600080516020610ffb833981519152604482015260fa60020a601902606482015290519081900360840190fd5b60009182526007602052604090912055565b600854600160a060020a031615801590610b905750600854600160a060020a031633145b1515610be1576040805160e560020a62461bcd0281526020600482015260216024820152600080516020610ffb833981519152604482015260fa60020a601902606482015290519081900360840190fd5b600081815260026020526040812061062291610f1e565b600854600160a060020a031615801590610c1c5750600854600160a060020a031633145b1515610c6d576040805160e560020a62461bcd0281526020600482015260216024820152600080516020610ffb833981519152604482015260fa60020a601902606482015290519081900360840190fd5b60008281526004602090815260409091208251610c8c92840190610f62565b505050565b600854600160a060020a031615801590610cb55750600854600160a060020a031633145b1515610d06576040805160e560020a62461bcd0281526020600482015260216024820152600080516020610ffb833981519152604482015260fa60020a601902606482015290519081900360840190fd5b600090815260016020526040812055565b60009081526001602052604090205490565b600854600160a060020a031690565b600054600160a060020a03163314610d4f57600080fd5b600160a060020a0381161515610dd4576040805160e560020a62461bcd028152602060048201526024808201527f44617461626173653a207265706f7369746f7279206d757374206e6f7420626560448201527f2030783000000000000000000000000000000000000000000000000000000000606482015290519081900360840190fd5b6008805473ffffffffffffffffffffffffffffffffffffffff1916600160a060020a0392909216919091179055565b600854600160a060020a031615801590610e275750600854600160a060020a031633145b1515610e78576040805160e560020a62461bcd0281526020600482015260216024820152600080516020610ffb833981519152604482015260fa60020a601902606482015290519081900360840190fd5b60008281526002602090815260409091208251610c8c92840190610f62565b600854600160a060020a031615801590610ebb5750600854600160a060020a031633145b1515610f0c576040805160e560020a62461bcd0281526020600482015260216024820152600080516020610ffb833981519152604482015260fa60020a601902606482015290519081900360840190fd5b60009182526001602052604090912055565b50805460018160011615610100020316600290046000825580601f10610f445750610622565b601f0160209004906000526020600020908101906106229190610fe0565b828054600181600116156101000203166002900490600052602060002090601f016020900481019282601f10610fa357805160ff1916838001178555610fd0565b82800160010185558215610fd0579182015b82811115610fd0578251825591602001919060010190610fb5565b50610fdc929150610fe0565b5090565b610a6891905b80821115610fdc5760008155600101610fe6560044617461626173653a206f6e6c79207265706f7369746f727920616c6c6f7765a165627a7a7230582059e9a20f1d5eca4268d14f354f770a406cd729c2bf8e45386be4fdf4122d92950029",
  "source": "pragma solidity 0.4.25;\n\nimport './Named.sol';\nimport './Owned.sol';\nimport {Database} from './Database.sol';\n\ncontract ContextDatabase is Database {}\n\nlibrary ContextPersistence {\n    \n    string constant CONTRACT_ADDRESS = 'contract.address';\n    \n    function setContract(ContextDatabase self, address contractAddress, string memory contractName) internal {\n        require(contractAddress != address(0));\n        self.setAddressValue(keccak256(abi.encodePacked(CONTRACT_ADDRESS, contractName)), contractAddress);\n    }\n    \n    function getContract(ContextDatabase self, string memory contractName) internal view returns (address) {\n        return self.getAddressValue(keccak256(abi.encodePacked(CONTRACT_ADDRESS, contractName)));\n    }\n    \n}\n\ninterface IContext {\n    \n    function register(Named namedContract) external;\n\n    function get(string name) external view returns (address contractAddress);\n\n}\n\ncontract Context is IContext, Owned {\n    \n    using ContextPersistence for ContextDatabase;\n    \n    ContextDatabase private _contextDatabase;\n    \n    constructor (address contextDatabase) public {\n        require(contextDatabase != address(0));\n        _contextDatabase = ContextDatabase(contextDatabase);\n    }\n    \n    function register(Named namedContract) external onlyOwner {\n        _contextDatabase.setContract(address(namedContract), namedContract.name());\n    }\n    \n    function get(string name) external view returns (address contractAddress) {\n        return _contextDatabase.getContract(name);\n    }\n\n    function contextDatabase() public view returns (address) {\n        return _contextDatabase;\n    }\n\n}\n\ncontract ContextDependent {\n\n    IContext internal _context;\n\n    constructor (IContext context) internal {\n        require(context != address(0), 'context can not be address(0)');\n        _context = context;\n    }\n\n}",
  "sourcePath": "/home/andrew/VsCodeProjects/VaultLogic/new-breath/contracts/common/Context.sol",
  "compiler": {
    "name": "solc",
    "version": "0.4.25+commit.59dbf8f1.Emscripten.clang"
  },
  "schemaVersion": "3.0.9",
  "updatedAt": "2019-05-11T12:43:16.848Z",
  "devdoc": {
    "methods": {}
  },
  "userdoc": {
    "methods": {
      "deleteUintValue(bytes32)": {
        "notice": "*DELETE METHODS**"
      },
      "setUintValue(bytes32,uint256)": {
        "notice": "*SET METHODS**"
      }
    }
  }
}