{
  "contractName": "Context",
  "abi": [
    {
      "constant": true,
      "inputs": [],
      "name": "owner",
      "outputs": [
        {
          "name": "",
          "type": "address"
        }
      ],
      "payable": false,
      "stateMutability": "view",
      "type": "function"
    },
    {
      "inputs": [
        {
          "name": "contextDatabase",
          "type": "address"
        }
      ],
      "payable": false,
      "stateMutability": "nonpayable",
      "type": "constructor"
    },
    {
      "constant": false,
      "inputs": [
        {
          "name": "namedContract",
          "type": "address"
        }
      ],
      "name": "register",
      "outputs": [],
      "payable": false,
      "stateMutability": "nonpayable",
      "type": "function"
    },
    {
      "constant": true,
      "inputs": [
        {
          "name": "name",
          "type": "string"
        }
      ],
      "name": "get",
      "outputs": [
        {
          "name": "contractAddress",
          "type": "address"
        }
      ],
      "payable": false,
      "stateMutability": "view",
      "type": "function"
    },
    {
      "constant": true,
      "inputs": [],
      "name": "contextDatabase",
      "outputs": [
        {
          "name": "",
          "type": "address"
        }
      ],
      "payable": false,
      "stateMutability": "view",
      "type": "function"
    }
  ],
  "bytecode": "0x608060405234801561001057600080fd5b5060405160208061066f833981016040525160008054600160a060020a03191633179055600160a060020a038116151561004957600080fd5b60018054600160a060020a031916600160a060020a03929092169190911790556105f7806100786000396000f3006080604052600436106100485763ffffffff60e060020a6000350416634420e486811461004d5780635e46f75114610070578063693ec85e146100a15780638da5cb5b146100c1575b600080fd5b34801561005957600080fd5b5061006e600160a060020a03600435166100d6565b005b34801561007c57600080fd5b506100856101d3565b60408051600160a060020a039092168252519081900360200190f35b3480156100ad57600080fd5b5061008560048035602481019101356101e2565b3480156100cd57600080fd5b50610085610238565b600054600160a060020a031633146100ed57600080fd5b6101d08182600160a060020a03166306fdde036040518163ffffffff1660e060020a028152600401600060405180830381600087803b15801561012f57600080fd5b505af1158015610143573d6000803e3d6000fd5b505050506040513d6000823e601f3d908101601f19168201604052602081101561016c57600080fd5b81019080805164010000000081111561018457600080fd5b8201602081018481111561019757600080fd5b81516401000000008111828201871017156101b157600080fd5b5050600154600160a060020a031694935091505063ffffffff61024716565b50565b600154600160a060020a031690565b600061023183838080601f0160208091040260200160405190810160405280939291908181526020018383808284375050600154600160a060020a03169493505063ffffffff61041116915050565b9392505050565b600054600160a060020a031690565b600160a060020a038216151561025c57600080fd5b82600160a060020a0316635a2bf25a6040805190810160405280601081526020017f636f6e74726163742e6164647265737300000000000000000000000000000000815250836040516020018083805190602001908083835b602083106102d45780518252601f1990920191602091820191016102b5565b51815160209384036101000a600019018019909216911617905285519190930192850191508083835b6020831061031c5780518252601f1990920191602091820191016102fd565b6001836020036101000a038019825116818451168082178552505050505050905001925050506040516020818303038152906040526040518082805190602001908083835b602083106103805780518252601f199092019160209182019101610361565b5181516020939093036101000a60001901801990911692169190911790526040805191909301819003812063ffffffff871660e060020a0282526004820152600160a060020a0389166024820152915160448084019550600094509092839003019050818387803b1580156103f457600080fd5b505af1158015610408573d6000803e3d6000fd5b50505050505050565b600082600160a060020a0316634c77e5ba6040805190810160405280601081526020017f636f6e74726163742e6164647265737300000000000000000000000000000000815250846040516020018083805190602001908083835b6020831061048b5780518252601f19909201916020918201910161046c565b51815160209384036101000a600019018019909216911617905285519190930192850191508083835b602083106104d35780518252601f1990920191602091820191016104b4565b6001836020036101000a038019825116818451168082178552505050505050905001925050506040516020818303038152906040526040518082805190602001908083835b602083106105375780518252601f199092019160209182019101610518565b51815160209384036101000a60001901801990921691161790526040805192909401829003822063ffffffff881660e060020a0283526004830152925160248083019650939450929083900301905081600087803b15801561059857600080fd5b505af11580156105ac573d6000803e3d6000fd5b505050506040513d60208110156105c257600080fd5b505193925050505600a165627a7a72305820572c07b7c95d3e9e50822cbd20deb23ded8ffc1c8629bf558091018a6f937e960029",
  "source": "pragma solidity 0.4.25;\n\nimport './Named.sol';\nimport './Owned.sol';\nimport {Database} from './Database.sol';\n\ncontract ContextDatabase is Database {}\n\nlibrary ContextPersistence {\n    \n    string constant CONTRACT_ADDRESS = 'contract.address';\n    \n    function setContract(ContextDatabase self, address contractAddress, string memory contractName) internal {\n        require(contractAddress != address(0));\n        self.setAddressValue(keccak256(abi.encodePacked(CONTRACT_ADDRESS, contractName)), contractAddress);\n    }\n    \n    function getContract(ContextDatabase self, string memory contractName) internal view returns (address) {\n        return self.getAddressValue(keccak256(abi.encodePacked(CONTRACT_ADDRESS, contractName)));\n    }\n    \n}\n\ninterface IContext {\n    \n    function register(Named namedContract) external;\n\n    function get(string name) external view returns (address contractAddress);\n\n}\n\ncontract Context is IContext, Owned {\n    \n    using ContextPersistence for ContextDatabase;\n    \n    ContextDatabase private _contextDatabase;\n    \n    constructor (address contextDatabase) public {\n        require(contextDatabase != address(0));\n        _contextDatabase = ContextDatabase(contextDatabase);\n    }\n    \n    function register(Named namedContract) external onlyOwner {\n        _contextDatabase.setContract(address(namedContract), namedContract.name());\n    }\n    \n    function get(string name) external view returns (address contractAddress) {\n        return _contextDatabase.getContract(name);\n    }\n\n    function contextDatabase() public view returns (address) {\n        return _contextDatabase;\n    }\n\n}\n\ncontract ContextDependent {\n\n    IContext internal _context;\n\n    constructor (IContext context) internal {\n        require(context != address(0), 'context can not be address(0)');\n        _context = context;\n    }\n\n}",
  "sourcePath": "/home/andrew/VsCodeProjects/VaultLogic/new-breath/contracts/common/Context.sol",
  "compiler": {
    "name": "solc",
    "version": "0.4.25+commit.59dbf8f1.Emscripten.clang"
  },
  "schemaVersion": "3.0.9",
  "updatedAt": "2019-05-11T12:43:18.765Z",
  "devdoc": {
    "methods": {}
  },
  "userdoc": {
    "methods": {}
  }
}