{
  "contractName": "ContextDatabase",
  "abi": [
    {
      "constant": true,
      "inputs": [
        {
          "name": "_key",
          "type": "bytes32"
        }
      ],
      "name": "getBytes32Value",
      "outputs": [
        {
          "name": "",
          "type": "bytes32"
        }
      ],
      "payable": false,
      "stateMutability": "view",
      "type": "function"
    },
    {
      "constant": false,
      "inputs": [
        {
          "name": "_key",
          "type": "bytes32"
        }
      ],
      "name": "deleteAddressValue",
      "outputs": [],
      "payable": false,
      "stateMutability": "nonpayable",
      "type": "function"
    },
    {
      "constant": false,
      "inputs": [
        {
          "name": "_key",
          "type": "bytes32"
        }
      ],
      "name": "deleteBytesValue",
      "outputs": [],
      "payable": false,
      "stateMutability": "nonpayable",
      "type": "function"
    },
    {
      "constant": false,
      "inputs": [
        {
          "name": "_key",
          "type": "bytes32"
        }
      ],
      "name": "deleteBytes32Value",
      "outputs": [],
      "payable": false,
      "stateMutability": "nonpayable",
      "type": "function"
    },
    {
      "constant": true,
      "inputs": [
        {
          "name": "_key",
          "type": "bytes32"
        }
      ],
      "name": "getBooleanValue",
      "outputs": [
        {
          "name": "",
          "type": "bool"
        }
      ],
      "payable": false,
      "stateMutability": "view",
      "type": "function"
    },
    {
      "constant": false,
      "inputs": [
        {
          "name": "_key",
          "type": "bytes32"
        },
        {
          "name": "_value",
          "type": "bytes32"
        }
      ],
      "name": "setBytes32Value",
      "outputs": [],
      "payable": false,
      "stateMutability": "nonpayable",
      "type": "function"
    },
    {
      "constant": false,
      "inputs": [
        {
          "name": "_key",
          "type": "bytes32"
        }
      ],
      "name": "deleteBooleanValue",
      "outputs": [],
      "payable": false,
      "stateMutability": "nonpayable",
      "type": "function"
    },
    {
      "constant": false,
      "inputs": [
        {
          "name": "_key",
          "type": "bytes32"
        },
        {
          "name": "_value",
          "type": "bool"
        }
      ],
      "name": "setBooleanValue",
      "outputs": [],
      "payable": false,
      "stateMutability": "nonpayable",
      "type": "function"
    },
    {
      "constant": true,
      "inputs": [
        {
          "name": "_key",
          "type": "bytes32"
        }
      ],
      "name": "getBytesValue",
      "outputs": [
        {
          "name": "",
          "type": "bytes"
        }
      ],
      "payable": false,
      "stateMutability": "view",
      "type": "function"
    },
    {
      "constant": true,
      "inputs": [
        {
          "name": "_key",
          "type": "bytes32"
        }
      ],
      "name": "getAddressValue",
      "outputs": [
        {
          "name": "",
          "type": "address"
        }
      ],
      "payable": false,
      "stateMutability": "view",
      "type": "function"
    },
    {
      "constant": false,
      "inputs": [
        {
          "name": "_key",
          "type": "bytes32"
        },
        {
          "name": "_value",
          "type": "address"
        }
      ],
      "name": "setAddressValue",
      "outputs": [],
      "payable": false,
      "stateMutability": "nonpayable",
      "type": "function"
    },
    {
      "constant": false,
      "inputs": [
        {
          "name": "_key",
          "type": "bytes32"
        }
      ],
      "name": "deleteIntValue",
      "outputs": [],
      "payable": false,
      "stateMutability": "nonpayable",
      "type": "function"
    },
    {
      "constant": true,
      "inputs": [],
      "name": "owner",
      "outputs": [
        {
          "name": "",
          "type": "address"
        }
      ],
      "payable": false,
      "stateMutability": "view",
      "type": "function"
    },
    {
      "constant": true,
      "inputs": [
        {
          "name": "_key",
          "type": "bytes32"
        }
      ],
      "name": "getIntValue",
      "outputs": [
        {
          "name": "",
          "type": "int256"
        }
      ],
      "payable": false,
      "stateMutability": "view",
      "type": "function"
    },
    {
      "constant": true,
      "inputs": [
        {
          "name": "_key",
          "type": "bytes32"
        }
      ],
      "name": "getStringValue",
      "outputs": [
        {
          "name": "",
          "type": "string"
        }
      ],
      "payable": false,
      "stateMutability": "view",
      "type": "function"
    },
    {
      "constant": false,
      "inputs": [
        {
          "name": "_key",
          "type": "bytes32"
        },
        {
          "name": "_value",
          "type": "int256"
        }
      ],
      "name": "setIntValue",
      "outputs": [],
      "payable": false,
      "stateMutability": "nonpayable",
      "type": "function"
    },
    {
      "constant": false,
      "inputs": [
        {
          "name": "_key",
          "type": "bytes32"
        }
      ],
      "name": "deleteStringValue",
      "outputs": [],
      "payable": false,
      "stateMutability": "nonpayable",
      "type": "function"
    },
    {
      "constant": false,
      "inputs": [
        {
          "name": "_key",
          "type": "bytes32"
        },
        {
          "name": "_value",
          "type": "bytes"
        }
      ],
      "name": "setBytesValue",
      "outputs": [],
      "payable": false,
      "stateMutability": "nonpayable",
      "type": "function"
    },
    {
      "constant": false,
      "inputs": [
        {
          "name": "_key",
          "type": "bytes32"
        }
      ],
      "name": "deleteUintValue",
      "outputs": [],
      "payable": false,
      "stateMutability": "nonpayable",
      "type": "function"
    },
    {
      "constant": true,
      "inputs": [
        {
          "name": "_key",
          "type": "bytes32"
        }
      ],
      "name": "getUintValue",
      "outputs": [
        {
          "name": "",
          "type": "uint256"
        }
      ],
      "payable": false,
      "stateMutability": "view",
      "type": "function"
    },
    {
      "constant": true,
      "inputs": [],
      "name": "repository",
      "outputs": [
        {
          "name": "",
          "type": "address"
        }
      ],
      "payable": false,
      "stateMutability": "view",
      "type": "function"
    },
    {
      "constant": false,
      "inputs": [
        {
          "name": "repository",
          "type": "address"
        }
      ],
      "name": "setRepository",
      "outputs": [],
      "payable": false,
      "stateMutability": "nonpayable",
      "type": "function"
    },
    {
      "constant": false,
      "inputs": [
        {
          "name": "_key",
          "type": "bytes32"
        },
        {
          "name": "_value",
          "type": "string"
        }
      ],
      "name": "setStringValue",
      "outputs": [],
      "payable": false,
      "stateMutability": "nonpayable",
      "type": "function"
    },
    {
      "constant": false,
      "inputs": [
        {
          "name": "_key",
          "type": "bytes32"
        },
        {
          "name": "_value",
          "type": "uint256"
        }
      ],
      "name": "setUintValue",
      "outputs": [],
      "payable": false,
      "stateMutability": "nonpayable",
      "type": "function"
    }
  ],
  "bytecode": "0x6080604052336000806101000a81548173ffffffffffffffffffffffffffffffffffffffff021916908373ffffffffffffffffffffffffffffffffffffffff160217905550612309806100536000396000f30060806040526004361061013e576000357c0100000000000000000000000000000000000000000000000000000000900463ffffffff168063025ec81a14610143578063043106c0146101905780630c55d925146101c1578063124f2418146101f257806317e7dd221461022357806325cf512d1461026c5780633cc1635c146102ab5780633eba9ed2146102dc57806344bfa56e146103195780634c77e5ba146103c35780635a2bf25a146104345780638267a9ee146104855780638da5cb5b146104b65780639007127b1461050d578063a209a29c14610552578063a77aa49e146105fc578063ba69fcaa14610637578063c9a52d2c14610668578063e4f30231146106df578063e82617fb14610710578063e9176c6014610755578063eaa32e3c146107ac578063f5866066146107ef578063ffb4f62314610866575b600080fd5b34801561014f57600080fd5b5061017260048036038101908080356000191690602001909291905050506108a1565b60405180826000191660001916815260200191505060405180910390f35b34801561019c57600080fd5b506101bf60048036038101908080356000191690602001909291905050506108c6565b005b3480156101cd57600080fd5b506101f06004803603810190808035600019169060200190929190505050610a4d565b005b3480156101fe57600080fd5b506102216004803603810190808035600019169060200190929190505050610bbd565b005b34801561022f57600080fd5b506102526004803603810190808035600019169060200190929190505050610d25565b604051808215151515815260200191505060405180910390f35b34801561027857600080fd5b506102a960048036038101908080356000191690602001909291908035600019169060200190929190505050610d57565b005b3480156102b757600080fd5b506102da6004803603810190808035600019169060200190929190505050610ec5565b005b3480156102e857600080fd5b506103176004803603810190808035600019169060200190929190803515159060200190929190505050611039565b005b34801561032557600080fd5b5061034860048036038101908080356000191690602001909291905050506111b6565b6040518080602001828103825283818151815260200191508051906020019080838360005b8381101561038857808201518184015260208101905061036d565b50505050905090810190601f1680156103b55780820380516001836020036101000a031916815260200191505b509250505060405180910390f35b3480156103cf57600080fd5b506103f26004803603810190808035600019169060200190929190505050611273565b604051808273ffffffffffffffffffffffffffffffffffffffff1673ffffffffffffffffffffffffffffffffffffffff16815260200191505060405180910390f35b34801561044057600080fd5b506104836004803603810190808035600019169060200190929190803573ffffffffffffffffffffffffffffffffffffffff1690602001909291905050506112b8565b005b34801561049157600080fd5b506104b4600480360381019080803560001916906020019092919050505061145c565b005b3480156104c257600080fd5b506104cb6115c4565b604051808273ffffffffffffffffffffffffffffffffffffffff1673ffffffffffffffffffffffffffffffffffffffff16815260200191505060405180910390f35b34801561051957600080fd5b5061053c60048036038101908080356000191690602001909291905050506115ed565b6040518082815260200191505060405180910390f35b34801561055e57600080fd5b506105816004803603810190808035600019169060200190929190505050611612565b6040518080602001828103825283818151815260200191508051906020019080838360005b838110156105c15780820151818401526020810190506105a6565b50505050905090810190601f1680156105ee5780820380516001836020036101000a031916815260200191505b509250505060405180910390f35b34801561060857600080fd5b506106356004803603810190808035600019169060200190929190803590602001909291905050506116cf565b005b34801561064357600080fd5b506106666004803603810190808035600019169060200190929190505050611839565b005b34801561067457600080fd5b506106dd6004803603810190808035600019169060200190929190803590602001908201803590602001908080601f01602080910402602001604051908101604052809392919081815260200183838082843782019150505050505091929192905050506119a9565b005b3480156106eb57600080fd5b5061070e6004803603810190808035600019169060200190929190505050611b23565b005b34801561071c57600080fd5b5061073f6004803603810190808035600019169060200190929190505050611c8b565b6040518082815260200191505060405180910390f35b34801561076157600080fd5b5061076a611cb0565b604051808273ffffffffffffffffffffffffffffffffffffffff1673ffffffffffffffffffffffffffffffffffffffff16815260200191505060405180910390f35b3480156107b857600080fd5b506107ed600480360381019080803573ffffffffffffffffffffffffffffffffffffffff169060200190929190505050611cda565b005b3480156107fb57600080fd5b506108646004803603810190808035600019169060200190929190803590602001908201803590602001908080601f0160208091040260200160405190810160405280939291908181526020018383808284378201915050505050509192919290505050611e44565b005b34801561087257600080fd5b5061089f600480360381019080803560001916906020019092919080359060200190929190505050611fbe565b005b6000600560008360001916600019168152602001908152602001600020549050919050565b600073ffffffffffffffffffffffffffffffffffffffff16600860009054906101000a900473ffffffffffffffffffffffffffffffffffffffff1673ffffffffffffffffffffffffffffffffffffffff16141580156109725750600860009054906101000a900473ffffffffffffffffffffffffffffffffffffffff1673ffffffffffffffffffffffffffffffffffffffff163373ffffffffffffffffffffffffffffffffffffffff16145b1515610a0c576040517f08c379a00000000000000000000000000000000000000000000000000000000081526004018080602001828103825260218152602001807f44617461626173653a206f6e6c79207265706f7369746f727920616c6c6f776581526020017f640000000000000000000000000000000000000000000000000000000000000081525060400191505060405180910390fd5b60036000826000191660001916815260200190815260200160002060006101000a81549073ffffffffffffffffffffffffffffffffffffffff021916905550565b600073ffffffffffffffffffffffffffffffffffffffff16600860009054906101000a900473ffffffffffffffffffffffffffffffffffffffff1673ffffffffffffffffffffffffffffffffffffffff1614158015610af95750600860009054906101000a900473ffffffffffffffffffffffffffffffffffffffff1673ffffffffffffffffffffffffffffffffffffffff163373ffffffffffffffffffffffffffffffffffffffff16145b1515610b93576040517f08c379a00000000000000000000000000000000000000000000000000000000081526004018080602001828103825260218152602001807f44617461626173653a206f6e6c79207265706f7369746f727920616c6c6f776581526020017f640000000000000000000000000000000000000000000000000000000000000081525060400191505060405180910390fd5b6004600082600019166000191681526020019081526020016000206000610bba9190612128565b50565b600073ffffffffffffffffffffffffffffffffffffffff16600860009054906101000a900473ffffffffffffffffffffffffffffffffffffffff1673ffffffffffffffffffffffffffffffffffffffff1614158015610c695750600860009054906101000a900473ffffffffffffffffffffffffffffffffffffffff1673ffffffffffffffffffffffffffffffffffffffff163373ffffffffffffffffffffffffffffffffffffffff16145b1515610d03576040517f08c379a00000000000000000000000000000000000000000000000000000000081526004018080602001828103825260218152602001807f44617461626173653a206f6e6c79207265706f7369746f727920616c6c6f776581526020017f640000000000000000000000000000000000000000000000000000000000000081525060400191505060405180910390fd5b6005600082600019166000191681526020019081526020016000206000905550565b600060066000836000191660001916815260200190815260200160002060009054906101000a900460ff169050919050565b600073ffffffffffffffffffffffffffffffffffffffff16600860009054906101000a900473ffffffffffffffffffffffffffffffffffffffff1673ffffffffffffffffffffffffffffffffffffffff1614158015610e035750600860009054906101000a900473ffffffffffffffffffffffffffffffffffffffff1673ffffffffffffffffffffffffffffffffffffffff163373ffffffffffffffffffffffffffffffffffffffff16145b1515610e9d576040517f08c379a00000000000000000000000000000000000000000000000000000000081526004018080602001828103825260218152602001807f44617461626173653a206f6e6c79207265706f7369746f727920616c6c6f776581526020017f640000000000000000000000000000000000000000000000000000000000000081525060400191505060405180910390fd5b8060056000846000191660001916815260200190815260200160002081600019169055505050565b600073ffffffffffffffffffffffffffffffffffffffff16600860009054906101000a900473ffffffffffffffffffffffffffffffffffffffff1673ffffffffffffffffffffffffffffffffffffffff1614158015610f715750600860009054906101000a900473ffffffffffffffffffffffffffffffffffffffff1673ffffffffffffffffffffffffffffffffffffffff163373ffffffffffffffffffffffffffffffffffffffff16145b151561100b576040517f08c379a00000000000000000000000000000000000000000000000000000000081526004018080602001828103825260218152602001807f44617461626173653a206f6e6c79207265706f7369746f727920616c6c6f776581526020017f640000000000000000000000000000000000000000000000000000000000000081525060400191505060405180910390fd5b60066000826000191660001916815260200190815260200160002060006101000a81549060ff021916905550565b600073ffffffffffffffffffffffffffffffffffffffff16600860009054906101000a900473ffffffffffffffffffffffffffffffffffffffff1673ffffffffffffffffffffffffffffffffffffffff16141580156110e55750600860009054906101000a900473ffffffffffffffffffffffffffffffffffffffff1673ffffffffffffffffffffffffffffffffffffffff163373ffffffffffffffffffffffffffffffffffffffff16145b151561117f576040517f08c379a00000000000000000000000000000000000000000000000000000000081526004018080602001828103825260218152602001807f44617461626173653a206f6e6c79207265706f7369746f727920616c6c6f776581526020017f640000000000000000000000000000000000000000000000000000000000000081525060400191505060405180910390fd5b8060066000846000191660001916815260200190815260200160002060006101000a81548160ff0219169083151502179055505050565b60606004600083600019166000191681526020019081526020016000208054600181600116156101000203166002900480601f0160208091040260200160405190810160405280929190818152602001828054600181600116156101000203166002900480156112675780601f1061123c57610100808354040283529160200191611267565b820191906000526020600020905b81548152906001019060200180831161124a57829003601f168201915b50505050509050919050565b600060036000836000191660001916815260200190815260200160002060009054906101000a900473ffffffffffffffffffffffffffffffffffffffff169050919050565b600073ffffffffffffffffffffffffffffffffffffffff16600860009054906101000a900473ffffffffffffffffffffffffffffffffffffffff1673ffffffffffffffffffffffffffffffffffffffff16141580156113645750600860009054906101000a900473ffffffffffffffffffffffffffffffffffffffff1673ffffffffffffffffffffffffffffffffffffffff163373ffffffffffffffffffffffffffffffffffffffff16145b15156113fe576040517f08c379a00000000000000000000000000000000000000000000000000000000081526004018080602001828103825260218152602001807f44617461626173653a206f6e6c79207265706f7369746f727920616c6c6f776581526020017f640000000000000000000000000000000000000000000000000000000000000081525060400191505060405180910390fd5b8060036000846000191660001916815260200190815260200160002060006101000a81548173ffffffffffffffffffffffffffffffffffffffff021916908373ffffffffffffffffffffffffffffffffffffffff1602179055505050565b600073ffffffffffffffffffffffffffffffffffffffff16600860009054906101000a900473ffffffffffffffffffffffffffffffffffffffff1673ffffffffffffffffffffffffffffffffffffffff16141580156115085750600860009054906101000a900473ffffffffffffffffffffffffffffffffffffffff1673ffffffffffffffffffffffffffffffffffffffff163373ffffffffffffffffffffffffffffffffffffffff16145b15156115a2576040517f08c379a00000000000000000000000000000000000000000000000000000000081526004018080602001828103825260218152602001807f44617461626173653a206f6e6c79207265706f7369746f727920616c6c6f776581526020017f640000000000000000000000000000000000000000000000000000000000000081525060400191505060405180910390fd5b6007600082600019166000191681526020019081526020016000206000905550565b60008060009054906101000a900473ffffffffffffffffffffffffffffffffffffffff16905090565b6000600760008360001916600019168152602001908152602001600020549050919050565b60606002600083600019166000191681526020019081526020016000208054600181600116156101000203166002900480601f0160208091040260200160405190810160405280929190818152602001828054600181600116156101000203166002900480156116c35780601f10611698576101008083540402835291602001916116c3565b820191906000526020600020905b8154815290600101906020018083116116a657829003601f168201915b50505050509050919050565b600073ffffffffffffffffffffffffffffffffffffffff16600860009054906101000a900473ffffffffffffffffffffffffffffffffffffffff1673ffffffffffffffffffffffffffffffffffffffff161415801561177b5750600860009054906101000a900473ffffffffffffffffffffffffffffffffffffffff1673ffffffffffffffffffffffffffffffffffffffff163373ffffffffffffffffffffffffffffffffffffffff16145b1515611815576040517f08c379a00000000000000000000000000000000000000000000000000000000081526004018080602001828103825260218152602001807f44617461626173653a206f6e6c79207265706f7369746f727920616c6c6f776581526020017f640000000000000000000000000000000000000000000000000000000000000081525060400191505060405180910390fd5b80600760008460001916600019168152602001908152602001600020819055505050565b600073ffffffffffffffffffffffffffffffffffffffff16600860009054906101000a900473ffffffffffffffffffffffffffffffffffffffff1673ffffffffffffffffffffffffffffffffffffffff16141580156118e55750600860009054906101000a900473ffffffffffffffffffffffffffffffffffffffff1673ffffffffffffffffffffffffffffffffffffffff163373ffffffffffffffffffffffffffffffffffffffff16145b151561197f576040517f08c379a00000000000000000000000000000000000000000000000000000000081526004018080602001828103825260218152602001807f44617461626173653a206f6e6c79207265706f7369746f727920616c6c6f776581526020017f640000000000000000000000000000000000000000000000000000000000000081525060400191505060405180910390fd5b60026000826000191660001916815260200190815260200160002060006119a69190612170565b50565b600073ffffffffffffffffffffffffffffffffffffffff16600860009054906101000a900473ffffffffffffffffffffffffffffffffffffffff1673ffffffffffffffffffffffffffffffffffffffff1614158015611a555750600860009054906101000a900473ffffffffffffffffffffffffffffffffffffffff1673ffffffffffffffffffffffffffffffffffffffff163373ffffffffffffffffffffffffffffffffffffffff16145b1515611aef576040517f08c379a00000000000000000000000000000000000000000000000000000000081526004018080602001828103825260218152602001807f44617461626173653a206f6e6c79207265706f7369746f727920616c6c6f776581526020017f640000000000000000000000000000000000000000000000000000000000000081525060400191505060405180910390fd5b806004600084600019166000191681526020019081526020016000209080519060200190611b1e9291906121b8565b505050565b600073ffffffffffffffffffffffffffffffffffffffff16600860009054906101000a900473ffffffffffffffffffffffffffffffffffffffff1673ffffffffffffffffffffffffffffffffffffffff1614158015611bcf5750600860009054906101000a900473ffffffffffffffffffffffffffffffffffffffff1673ffffffffffffffffffffffffffffffffffffffff163373ffffffffffffffffffffffffffffffffffffffff16145b1515611c69576040517f08c379a00000000000000000000000000000000000000000000000000000000081526004018080602001828103825260218152602001807f44617461626173653a206f6e6c79207265706f7369746f727920616c6c6f776581526020017f640000000000000000000000000000000000000000000000000000000000000081525060400191505060405180910390fd5b6001600082600019166000191681526020019081526020016000206000905550565b6000600160008360001916600019168152602001908152602001600020549050919050565b6000600860009054906101000a900473ffffffffffffffffffffffffffffffffffffffff16905090565b6000809054906101000a900473ffffffffffffffffffffffffffffffffffffffff1673ffffffffffffffffffffffffffffffffffffffff163373ffffffffffffffffffffffffffffffffffffffff16141515611d3557600080fd5b600073ffffffffffffffffffffffffffffffffffffffff168173ffffffffffffffffffffffffffffffffffffffff1614151515611e00576040517f08c379a00000000000000000000000000000000000000000000000000000000081526004018080602001828103825260248152602001807f44617461626173653a207265706f7369746f7279206d757374206e6f7420626581526020017f203078300000000000000000000000000000000000000000000000000000000081525060400191505060405180910390fd5b80600860006101000a81548173ffffffffffffffffffffffffffffffffffffffff021916908373ffffffffffffffffffffffffffffffffffffffff16021790555050565b600073ffffffffffffffffffffffffffffffffffffffff16600860009054906101000a900473ffffffffffffffffffffffffffffffffffffffff1673ffffffffffffffffffffffffffffffffffffffff1614158015611ef05750600860009054906101000a900473ffffffffffffffffffffffffffffffffffffffff1673ffffffffffffffffffffffffffffffffffffffff163373ffffffffffffffffffffffffffffffffffffffff16145b1515611f8a576040517f08c379a00000000000000000000000000000000000000000000000000000000081526004018080602001828103825260218152602001807f44617461626173653a206f6e6c79207265706f7369746f727920616c6c6f776581526020017f640000000000000000000000000000000000000000000000000000000000000081525060400191505060405180910390fd5b806002600084600019166000191681526020019081526020016000209080519060200190611fb9929190612238565b505050565b600073ffffffffffffffffffffffffffffffffffffffff16600860009054906101000a900473ffffffffffffffffffffffffffffffffffffffff1673ffffffffffffffffffffffffffffffffffffffff161415801561206a5750600860009054906101000a900473ffffffffffffffffffffffffffffffffffffffff1673ffffffffffffffffffffffffffffffffffffffff163373ffffffffffffffffffffffffffffffffffffffff16145b1515612104576040517f08c379a00000000000000000000000000000000000000000000000000000000081526004018080602001828103825260218152602001807f44617461626173653a206f6e6c79207265706f7369746f727920616c6c6f776581526020017f640000000000000000000000000000000000000000000000000000000000000081525060400191505060405180910390fd5b80600160008460001916600019168152602001908152602001600020819055505050565b50805460018160011615610100020316600290046000825580601f1061214e575061216d565b601f01602090049060005260206000209081019061216c91906122b8565b5b50565b50805460018160011615610100020316600290046000825580601f1061219657506121b5565b601f0160209004906000526020600020908101906121b491906122b8565b5b50565b828054600181600116156101000203166002900490600052602060002090601f016020900481019282601f106121f957805160ff1916838001178555612227565b82800160010185558215612227579182015b8281111561222657825182559160200191906001019061220b565b5b50905061223491906122b8565b5090565b828054600181600116156101000203166002900490600052602060002090601f016020900481019282601f1061227957805160ff19168380011785556122a7565b828001600101855582156122a7579182015b828111156122a657825182559160200191906001019061228b565b5b5090506122b491906122b8565b5090565b6122da91905b808211156122d65760008160009055506001016122be565b5090565b905600a165627a7a7230582072f0b137d4394ab280ea609f6321d6e6522d7670f4d83963698978373f7bdaf90029",
  "source": "pragma solidity 0.4.25;\n\nimport './Named.sol';\nimport './Owned.sol';\nimport {Database} from './Database.sol';\n\ncontract ContextDatabase is Database {}\n\nlibrary ContextPersistence {\n    \n    string constant CONTRACT_ADDRESS = 'contract.address';\n    \n    function setContract(ContextDatabase self, address contractAddress, string memory contractName) internal {\n        require(contractAddress != address(0));\n        self.setAddressValue(keccak256(abi.encodePacked(CONTRACT_ADDRESS, contractName)), contractAddress);\n    }\n    \n    function getContract(ContextDatabase self, string memory contractName) internal view returns (address) {\n        return self.getAddressValue(keccak256(abi.encodePacked(CONTRACT_ADDRESS, contractName)));\n    }\n    \n}\n\ninterface IContext {\n    \n    function register(Named namedContract) external;\n\n    function get(string name) external view returns (address contractAddress);\n\n}\n\ncontract Context is IContext, Owned {\n    \n    using ContextPersistence for ContextDatabase;\n    \n    ContextDatabase private _contextDatabase;\n    \n    constructor (address contextDatabase) public {\n        require(contextDatabase != address(0));\n        _contextDatabase = ContextDatabase(contextDatabase);\n    }\n    \n    function register(Named namedContract) external onlyOwner {\n        _contextDatabase.setContract(address(namedContract), namedContract.name());\n    }\n    \n    function get(string name) external view returns (address contractAddress) {\n        return _contextDatabase.getContract(name);\n    }\n\n    function contextDatabase() public view returns (address) {\n        return _contextDatabase;\n    }\n\n}",
  "sourcePath": "/home/andrew/TruffleProjects/VaultLogic 2.0/contracts/common/Context.sol",
  "compiler": {
    "name": "solc",
    "version": "0.4.25+commit.59dbf8f1.Emscripten.clang"
  },
  "schemaVersion": "2.0.2",
  "updatedAt": "2019-05-08T14:55:15.640Z"
}