{
  "contractName": "Mortal",
  "abi": [
    {
      "constant": true,
      "inputs": [],
      "name": "owner",
      "outputs": [
        {
          "name": "",
          "type": "address"
        }
      ],
      "payable": false,
      "stateMutability": "view",
      "type": "function"
    },
    {
      "constant": false,
      "inputs": [],
      "name": "kill",
      "outputs": [],
      "payable": false,
      "stateMutability": "nonpayable",
      "type": "function"
    }
  ],
  "bytecode": "0x608060405260008054600160a060020a0319163317905561010b806100256000396000f30060806040526004361060485763ffffffff7c010000000000000000000000000000000000000000000000000000000060003504166341c0e1b58114604d5780638da5cb5b146061575b600080fd5b348015605857600080fd5b50605f609c565b005b348015606c57600080fd5b50607360c3565b6040805173ffffffffffffffffffffffffffffffffffffffff9092168252519081900360200190f35b60005473ffffffffffffffffffffffffffffffffffffffff16331460bf57600080fd5b6000ff5b60005473ffffffffffffffffffffffffffffffffffffffff16905600a165627a7a72305820fdf9043f8a28cd40742582f9cacd366e029abdb2290e445b7d92a1ae5b4d6b550029",
  "source": "pragma solidity 0.4.25;\n\nimport './Owned.sol';\n\ncontract Mortal is Owned {\n\n    function kill() public onlyOwner {\n        selfdestruct(address(0));\n    }\n\n}",
  "sourcePath": "/home/andrew/VsCodeProjects/VaultLogic/new-breath/contracts/common/Mortal.sol",
  "compiler": {
    "name": "solc",
    "version": "0.4.25+commit.59dbf8f1.Emscripten.clang"
  },
  "schemaVersion": "3.0.9",
  "updatedAt": "2019-05-11T12:34:33.575Z",
  "devdoc": {
    "methods": {}
  },
  "userdoc": {
    "methods": {}
  }
}