{
  "contractName": "Session",
  "abi": [
    {
      "inputs": [
        {
          "name": "xToken",
          "type": "string"
        }
      ],
      "payable": false,
      "stateMutability": "nonpayable",
      "type": "constructor"
    },
    {
      "constant": true,
      "inputs": [],
      "name": "cashIn",
      "outputs": [
        {
          "name": "",
          "type": "address"
        }
      ],
      "payable": false,
      "stateMutability": "pure",
      "type": "function"
    }
  ],
  "bytecode": "0x608060405234801561001057600080fd5b5060405161019938038061019983398101604052805101805161003a906000906020840190610041565b50506100dc565b828054600181600116156101000203166002900490600052602060002090601f016020900481019282601f1061008257805160ff19168380011785556100af565b828001600101855582156100af579182015b828111156100af578251825591602001919060010190610094565b506100bb9291506100bf565b5090565b6100d991905b808211156100bb57600081556001016100c5565b90565b60af806100ea6000396000f300608060405260043610603e5763ffffffff7c01000000000000000000000000000000000000000000000000000000006000350416631e58061581146043575b600080fd5b348015604e57600080fd5b506055607e565b6040805173ffffffffffffffffffffffffffffffffffffffff9092168252519081900360200190f35b6000905600a165627a7a72305820c674d25bd06e6e49fd3983048984c82b5198a7fafaf589c1565fc96612361bcf0029",
  "source": "pragma solidity 0.4.25;\n\ncontract Session {\n    \n    string private _xToken;\n\n    constructor (string memory xToken) public {\n        _xToken = xToken;\n    }\n\n    function cashIn() public pure returns (address) {\n        return address(0);\n    }\n\n}\n\ncontract SessionFactory {\n\n    event SessionCreated(address session);\n\n    function createSession(string memory xToken) public returns (address) {\n        address session = address(new Session(xToken));\n        emit SessionCreated(session);\n        return session;\n    }\n\n}",
  "sourcePath": "/home/andrew/VsCodeProjects/VaultLogic/new-breath/contracts/factory/SessionFactory.sol",
  "compiler": {
    "name": "solc",
    "version": "0.4.25+commit.59dbf8f1.Emscripten.clang"
  },
  "schemaVersion": "3.0.9",
  "updatedAt": "2019-05-11T14:39:58.738Z",
  "devdoc": {
    "methods": {}
  },
  "userdoc": {
    "methods": {}
  }
}