{
  "contractName": "TokenService",
  "abi": [
    {
      "constant": true,
      "inputs": [],
      "name": "name",
      "outputs": [
        {
          "name": "",
          "type": "string"
        }
      ],
      "payable": false,
      "stateMutability": "view",
      "type": "function"
    },
    {
      "constant": false,
      "inputs": [],
      "name": "kill",
      "outputs": [],
      "payable": false,
      "stateMutability": "nonpayable",
      "type": "function"
    },
    {
      "constant": true,
      "inputs": [],
      "name": "owner",
      "outputs": [
        {
          "name": "",
          "type": "address"
        }
      ],
      "payable": false,
      "stateMutability": "view",
      "type": "function"
    },
    {
      "inputs": [
        {
          "name": "context",
          "type": "address"
        },
        {
          "name": "tokenDatabase",
          "type": "address"
        }
      ],
      "payable": false,
      "stateMutability": "nonpayable",
      "type": "constructor"
    },
    {
      "constant": true,
      "inputs": [],
      "name": "totalSupply",
      "outputs": [
        {
          "name": "",
          "type": "uint256"
        }
      ],
      "payable": false,
      "stateMutability": "view",
      "type": "function"
    },
    {
      "constant": true,
      "inputs": [
        {
          "name": "owner",
          "type": "address"
        }
      ],
      "name": "balanceOf",
      "outputs": [
        {
          "name": "",
          "type": "uint256"
        }
      ],
      "payable": false,
      "stateMutability": "view",
      "type": "function"
    },
    {
      "constant": true,
      "inputs": [
        {
          "name": "owner",
          "type": "address"
        },
        {
          "name": "spender",
          "type": "address"
        }
      ],
      "name": "allowance",
      "outputs": [
        {
          "name": "",
          "type": "uint256"
        }
      ],
      "payable": false,
      "stateMutability": "view",
      "type": "function"
    },
    {
      "constant": false,
      "inputs": [
        {
          "name": "to",
          "type": "address"
        },
        {
          "name": "value",
          "type": "uint256"
        }
      ],
      "name": "transfer",
      "outputs": [
        {
          "name": "",
          "type": "bool"
        }
      ],
      "payable": false,
      "stateMutability": "nonpayable",
      "type": "function"
    },
    {
      "constant": false,
      "inputs": [
        {
          "name": "spender",
          "type": "address"
        },
        {
          "name": "value",
          "type": "uint256"
        }
      ],
      "name": "approve",
      "outputs": [
        {
          "name": "",
          "type": "bool"
        }
      ],
      "payable": false,
      "stateMutability": "nonpayable",
      "type": "function"
    },
    {
      "constant": false,
      "inputs": [
        {
          "name": "from",
          "type": "address"
        },
        {
          "name": "to",
          "type": "address"
        },
        {
          "name": "value",
          "type": "uint256"
        }
      ],
      "name": "transferFrom",
      "outputs": [
        {
          "name": "",
          "type": "bool"
        }
      ],
      "payable": false,
      "stateMutability": "nonpayable",
      "type": "function"
    },
    {
      "constant": false,
      "inputs": [
        {
          "name": "spender",
          "type": "address"
        },
        {
          "name": "addedValue",
          "type": "uint256"
        }
      ],
      "name": "increaseAllowance",
      "outputs": [
        {
          "name": "",
          "type": "bool"
        }
      ],
      "payable": false,
      "stateMutability": "nonpayable",
      "type": "function"
    },
    {
      "constant": false,
      "inputs": [
        {
          "name": "spender",
          "type": "address"
        },
        {
          "name": "subtractedValue",
          "type": "uint256"
        }
      ],
      "name": "decreaseAllowance",
      "outputs": [
        {
          "name": "",
          "type": "bool"
        }
      ],
      "payable": false,
      "stateMutability": "nonpayable",
      "type": "function"
    },
    {
      "constant": false,
      "inputs": [
        {
          "name": "to",
          "type": "address"
        },
        {
          "name": "value",
          "type": "uint256"
        }
      ],
      "name": "mint",
      "outputs": [
        {
          "name": "",
          "type": "bool"
        }
      ],
      "payable": false,
      "stateMutability": "nonpayable",
      "type": "function"
    },
    {
      "constant": false,
      "inputs": [
        {
          "name": "value",
          "type": "uint256"
        }
      ],
      "name": "burn",
      "outputs": [],
      "payable": false,
      "stateMutability": "nonpayable",
      "type": "function"
    },
    {
      "constant": false,
      "inputs": [
        {
          "name": "from",
          "type": "address"
        },
        {
          "name": "value",
          "type": "uint256"
        }
      ],
      "name": "burnFrom",
      "outputs": [],
      "payable": false,
      "stateMutability": "nonpayable",
      "type": "function"
    }
  ],
  "bytecode": "0x60806040523480156200001157600080fd5b5060405160408062002a788339810160408181528251602093840151828401909252600d8084527f746f6b656e2d736572766963650000000000000000000000000000000000000094840194855260008054600160a060020a0319163317905590939192849283926200008791600191620001dc565b5050600160a060020a03811615156200010157604080517f08c379a000000000000000000000000000000000000000000000000000000000815260206004820152601d60248201527f636f6e746578742063616e206e6f742062652061646472657373283029000000604482015290519081900360640190fd5b60028054600160a060020a031916600160a060020a03928316179055821615159050620001b557604080517f08c379a000000000000000000000000000000000000000000000000000000000815260206004820152603360248201527f546f6b656e536572766963653a206461746162617365206d757374206265206e60448201527f6f7420746865207a65726f206164647265737300000000000000000000000000606482015290519081900360840190fd5b60038054600160a060020a031916600160a060020a03929092169190911790555062000281565b828054600181600116156101000203166002900490600052602060002090601f016020900481019282601f106200021f57805160ff19168380011785556200024f565b828001600101855582156200024f579182015b828111156200024f57825182559160200191906001019062000232565b506200025d92915062000261565b5090565b6200027e91905b808211156200025d576000815560010162000268565b90565b6127e780620002916000396000f3006080604052600436106100b65763ffffffff60e060020a60003504166306fdde0381146100bb578063095ea7b31461014557806318160ddd1461017d57806323b872dd146101a457806339509351146101ce57806340c10f19146101f257806341c0e1b51461021657806342966c681461022d57806370a082311461024557806379cc6790146102665780638da5cb5b1461028a578063a457c2d7146102bb578063a9059cbb146102df578063dd62ed3e14610303575b600080fd5b3480156100c757600080fd5b506100d061032a565b6040805160208082528351818301528351919283929083019185019080838360005b8381101561010a5781810151838201526020016100f2565b50505050905090810190601f1680156101375780820380516001836020036101000a031916815260200191505b509250505060405180910390f35b34801561015157600080fd5b50610169600160a060020a03600435166024356103bf565b604080519115158252519081900360200190f35b34801561018957600080fd5b506101926103e6565b60408051918252519081900360200190f35b3480156101b057600080fd5b50610169600160a060020a0360043581169060243516604435610403565b3480156101da57600080fd5b50610169600160a060020a036004351660243561042c565b3480156101fe57600080fd5b50610169600160a060020a036004351660243561044c565b34801561022257600080fd5b5061022b610670565b005b34801561023957600080fd5b5061022b60043561068b565b34801561025157600080fd5b50610192600160a060020a03600435166106aa565b34801561027257600080fd5b5061022b600160a060020a03600435166024356106cf565b34801561029657600080fd5b5061029f6106f0565b60408051600160a060020a039092168252519081900360200190f35b3480156102c757600080fd5b50610169600160a060020a03600435166024356106ff565b3480156102eb57600080fd5b50610169600160a060020a036004351660243561071f565b34801561030f57600080fd5b50610192600160a060020a036004358116906024351661073f565b60018054604080516020601f600260001961010087891615020190951694909404938401819004810282018101909252828152606093909290918301828280156103b55780601f1061038a576101008083540402835291602001916103b5565b820191906000526020600020905b81548152906001019060200180831161039857829003601f168201915b5050505050905090565b6003546000906103df90600160a060020a0316848463ffffffff61075f16565b9392505050565b6003546000906103fe90600160a060020a0316610777565b905090565b60035460009061042490600160a060020a031685858563ffffffff61090116565b949350505050565b6003546000906103df90600160a060020a0316848463ffffffff610acb16565b600254604080518082018252601081527f61646d696e2d7265706f7369746f727900000000000000000000000000000000602080830191825292517f693ec85e00000000000000000000000000000000000000000000000000000000815260048101938452825160248201528251600095600160a060020a03169463693ec85e949390928392604490910191908083838b5b838110156104f65781810151838201526020016104de565b50505050905090810190601f1680156105235780820380516001836020036101000a031916815260200191505b5092505050602060405180830381600087803b15801561054257600080fd5b505af1158015610556573d6000803e3d6000fd5b505050506040513d602081101561056c57600080fd5b5051604080517f24d7806c0000000000000000000000000000000000000000000000000000000081523360048201529051600160a060020a03909216916324d7806c916024808201926020929091908290030181600087803b1580156105d157600080fd5b505af11580156105e5573d6000803e3d6000fd5b505050506040513d60208110156105fb57600080fd5b50511515610653576040805160e560020a62461bcd02815260206004820152601a60248201527f4163636573733a206f6e6c792061646d696e20616c6c6f776564000000000000604482015290519081900360640190fd5b6003546103df90600160a060020a0316848463ffffffff610c8616565b600054600160a060020a0316331461068757600080fd5b6000ff5b6003546106a790600160a060020a03168263ffffffff610c9316565b50565b6003546000906106c990600160a060020a03168363ffffffff610c9e16565b92915050565b6003546106ec90600160a060020a0316838363ffffffff610e1c16565b5050565b600054600160a060020a031690565b6003546000906103df90600160a060020a0316848463ffffffff610e2c16565b6003546000906103df90600160a060020a0316848463ffffffff610fdc16565b6003546000906103df90600160a060020a0316848463ffffffff610fea16565b600061076d84338585611189565b5060019392505050565b600081600160a060020a031663e82617fb6040805190810160405280601281526020017f746f6b656e2e746f74616c2d737570706c7900000000000000000000000000008152506040516020018080602001828103825283818151815260200191508051906020019080838360005b838110156107fe5781810151838201526020016107e6565b50505050905090810190601f16801561082b5780820380516001836020036101000a031916815260200191505b50925050506040516020818303038152906040526040518082805190602001908083835b6020831061086e5780518252601f19909201916020918201910161084f565b51815160209384036101000a60001901801990921691161790526040805192909401829003822063ffffffff881660e060020a0283526004830152925160248083019650939450929083900301905081600087803b1580156108cf57600080fd5b505af11580156108e3573d6000803e3d6000fd5b505050506040513d60208110156108f957600080fd5b505192915050565b60008061091086868686611427565b85600160a060020a031663e82617fb6040805190810160405280600f815260200160008051602061279c83398151915281525087336040516020018084805190602001908083835b602083106109775780518252601f199092019160209182019101610958565b6001836020036101000a03801982511681845116808217855250505050505090500183600160a060020a0316600160a060020a0316606060020a02815260140182600160a060020a0316600160a060020a0316606060020a02815260140193505050506040516020818303038152906040526040518082805190602001908083835b60208310610a185780518252601f1990920191602091820191016109f9565b51815160209384036101000a60001901801990921691161790526040805192909401829003822063ffffffff881660e060020a0283526004830152925160248083019650939450929083900301905081600087803b158015610a7957600080fd5b505af1158015610a8d573d6000803e3d6000fd5b505050506040513d6020811015610aa357600080fd5b50519050610ac2868633610abd858863ffffffff611b3616565b611189565b50949350505050565b60008084600160a060020a031663e82617fb6040805190810160405280600f815260200160008051602061279c83398151915281525033876040516020018084805190602001908083835b60208310610b355780518252601f199092019160209182019101610b16565b6001836020036101000a03801982511681845116808217855250505050505090500183600160a060020a0316600160a060020a0316606060020a02815260140182600160a060020a0316600160a060020a0316606060020a02815260140193505050506040516020818303038152906040526040518082805190602001908083835b60208310610bd65780518252601f199092019160209182019101610bb7565b51815160209384036101000a60001901801990921691161790526040805192909401829003822063ffffffff881660e060020a0283526004830152925160248083019650939450929083900301905081600087803b158015610c3757600080fd5b505af1158015610c4b573d6000803e3d6000fd5b505050506040513d6020811015610c6157600080fd5b50519050610c7b853386610abd858863ffffffff611b9816565b506001949350505050565b600061076d848484611bf5565b6106ec8233836120fc565b600082600160a060020a031663e82617fb6040805190810160405280600d815260200160008051602061277c833981519152815250846040516020018083805190602001908083835b60208310610d065780518252601f199092019160209182019101610ce7565b6001836020036101000a03801982511681845116808217855250505050505090500182600160a060020a0316600160a060020a0316606060020a028152601401925050506040516020818303038152906040526040518082805190602001908083835b60208310610d885780518252601f199092019160209182019101610d69565b51815160209384036101000a60001901801990921691161790526040805192909401829003822063ffffffff881660e060020a0283526004830152925160248083019650939450929083900301905081600087803b158015610de957600080fd5b505af1158015610dfd573d6000803e3d6000fd5b505050506040513d6020811015610e1357600080fd5b50519392505050565b610e278383836125bb565b505050565b60008084600160a060020a031663e82617fb6040805190810160405280600f815260200160008051602061279c83398151915281525033876040516020018084805190602001908083835b60208310610e965780518252601f199092019160209182019101610e77565b6001836020036101000a03801982511681845116808217855250505050505090500183600160a060020a0316600160a060020a0316606060020a02815260140182600160a060020a0316600160a060020a0316606060020a02815260140193505050506040516020818303038152906040526040518082805190602001908083835b60208310610f375780518252601f199092019160209182019101610f18565b51815160209384036101000a60001901801990921691161790526040805192909401829003822063ffffffff881660e060020a0283526004830152925160248083019650939450929083900301905081600087803b158015610f9857600080fd5b505af1158015610fac573d6000803e3d6000fd5b505050506040513d6020811015610fc257600080fd5b50519050610c7b853386610abd858863ffffffff611b3616565b600061076d84338585611427565b600083600160a060020a031663e82617fb6040805190810160405280600f815260200160008051602061279c83398151915281525085856040516020018084805190602001908083835b602083106110535780518252601f199092019160209182019101611034565b6001836020036101000a03801982511681845116808217855250505050505090500183600160a060020a0316600160a060020a0316606060020a02815260140182600160a060020a0316600160a060020a0316606060020a02815260140193505050506040516020818303038152906040526040518082805190602001908083835b602083106110f45780518252601f1990920191602091820191016110d5565b51815160209384036101000a60001901801990921691161790526040805192909401829003822063ffffffff881660e060020a0283526004830152925160248083019650939450929083900301905081600087803b15801561115557600080fd5b505af1158015611169573d6000803e3d6000fd5b505050506040513d602081101561117f57600080fd5b5051949350505050565b600160a060020a038316151561120f576040805160e560020a62461bcd02815260206004820152602b60248201527f546f6b656e536572766963653a20617070726f76652066726f6d20746865207a60448201527f65726f206163636f756e74000000000000000000000000000000000000000000606482015290519081900360840190fd5b600160a060020a0382161515611295576040805160e560020a62461bcd02815260206004820152602960248201527f546f6b656e536572766963653a20617070726f766520746f20746865207a657260448201527f6f206163636f756e740000000000000000000000000000000000000000000000606482015290519081900360840190fd5b83600160a060020a031663ffb4f6236040805190810160405280600f815260200160008051602061279c83398151915281525085856040516020018084805190602001908083835b602083106112fc5780518252601f1990920191602091820191016112dd565b6001836020036101000a03801982511681845116808217855250505050505090500183600160a060020a0316600160a060020a0316606060020a02815260140182600160a060020a0316600160a060020a0316606060020a02815260140193505050506040516020818303038152906040526040518082805190602001908083835b6020831061139d5780518252601f19909201916020918201910161137e565b5181516020939093036101000a60001901801990911692169190911790526040805191909301819003812063ffffffff871660e060020a028252600482015260248101889052915160448084019550600094509092839003019050818387803b15801561140957600080fd5b505af115801561141d573d6000803e3d6000fd5b5050505050505050565b600080600160a060020a03841615156114b0576040805160e560020a62461bcd02815260206004820152602a60248201527f546f6b656e536572766963653a207472616e7366657220746f20746865207a6560448201527f726f206164647265737300000000000000000000000000000000000000000000606482015290519081900360840190fd5b600160a060020a0385161515611536576040805160e560020a62461bcd02815260206004820152602c60248201527f546f6b656e536572766963653a207472616e736665722066726f6d207468652060448201527f7a65726f20616464726573730000000000000000000000000000000000000000606482015290519081900360840190fd5b85600160a060020a031663e82617fb6040805190810160405280600d815260200160008051602061277c833981519152815250876040516020018083805190602001908083835b6020831061159c5780518252601f19909201916020918201910161157d565b6001836020036101000a03801982511681845116808217855250505050505090500182600160a060020a0316600160a060020a0316606060020a028152601401925050506040516020818303038152906040526040518082805190602001908083835b6020831061161e5780518252601f1990920191602091820191016115ff565b51815160209384036101000a60001901801990921691161790526040805192909401829003822063ffffffff881660e060020a0283526004830152925160248083019650939450929083900301905081600087803b15801561167f57600080fd5b505af1158015611693573d6000803e3d6000fd5b505050506040513d60208110156116a957600080fd5b5051604080518082018252600d80825260008051602061277c83398151915260208381019182529351949650600160a060020a038b169463ffb4f623948b9391019182918083835b602083106117105780518252601f1990920191602091820191016116f1565b6001836020036101000a03801982511681845116808217855250505050505090500182600160a060020a0316600160a060020a0316606060020a028152601401925050506040516020818303038152906040526040518082805190602001908083835b602083106117925780518252601f199092019160209182019101611773565b6001836020036101000a03801982511681845116808217855250505050505090500191505060405180910390206117d28686611b3690919063ffffffff16565b6040518363ffffffff1660e060020a02815260040180836000191660001916815260200182815260200192505050600060405180830381600087803b15801561181a57600080fd5b505af115801561182e573d6000803e3d6000fd5b5050505085600160a060020a031663e82617fb6040805190810160405280600d815260200160008051602061277c833981519152815250866040516020018083805190602001908083835b602083106118985780518252601f199092019160209182019101611879565b6001836020036101000a03801982511681845116808217855250505050505090500182600160a060020a0316600160a060020a0316606060020a028152601401925050506040516020818303038152906040526040518082805190602001908083835b6020831061191a5780518252601f1990920191602091820191016118fb565b51815160209384036101000a60001901801990921691161790526040805192909401829003822063ffffffff881660e060020a0283526004830152925160248083019650939450929083900301905081600087803b15801561197b57600080fd5b505af115801561198f573d6000803e3d6000fd5b505050506040513d60208110156119a557600080fd5b5051604080518082018252600d80825260008051602061277c83398151915260208381019182529351949550600160a060020a038b169463ffb4f623948a9391019182918083835b60208310611a0c5780518252601f1990920191602091820191016119ed565b6001836020036101000a03801982511681845116808217855250505050505090500182600160a060020a0316600160a060020a0316606060020a028152601401925050506040516020818303038152906040526040518082805190602001908083835b60208310611a8e5780518252601f199092019160209182019101611a6f565b6001836020036101000a0380198251168184511680821785525050505050509050019150506040518091039020611ace8685611b9890919063ffffffff16565b6040518363ffffffff1660e060020a02815260040180836000191660001916815260200182815260200192505050600060405180830381600087803b158015611b1657600080fd5b505af1158015611b2a573d6000803e3d6000fd5b50505050505050505050565b60008083831115611b91576040805160e560020a62461bcd02815260206004820152601e60248201527f536166654d6174683a207375627472616374696f6e206f766572666c6f770000604482015290519081900360640190fd5b5050900390565b6000828201838110156103df576040805160e560020a62461bcd02815260206004820152601b60248201527f536166654d6174683a206164646974696f6e206f766572666c6f770000000000604482015290519081900360640190fd5b6000600160a060020a0383161515611c7d576040805160e560020a62461bcd02815260206004820152602a60248201527f546f6b656e536572766963653a207472616e7366657220746f20746865207a6560448201527f726f206164647265737300000000000000000000000000000000000000000000606482015290519081900360840190fd5b83600160a060020a031663ffb4f6236040805190810160405280601281526020017f746f6b656e2e746f74616c2d737570706c7900000000000000000000000000008152506040516020018080602001828103825283818151815260200191508051906020019080838360005b83811015611d02578181015183820152602001611cea565b50505050905090810190601f168015611d2f5780820380516001836020036101000a031916815260200191505b50925050506040516020818303038152906040526040518082805190602001908083835b60208310611d725780518252601f199092019160209182019101611d53565b6001836020036101000a0380198251168184511680821785525050505050509050019150506040518091039020611db885611dac89610777565b9063ffffffff611b9816565b6040518363ffffffff1660e060020a02815260040180836000191660001916815260200182815260200192505050600060405180830381600087803b158015611e0057600080fd5b505af1158015611e14573d6000803e3d6000fd5b5050505083600160a060020a031663e82617fb6040805190810160405280600d815260200160008051602061277c833981519152815250856040516020018083805190602001908083835b60208310611e7e5780518252601f199092019160209182019101611e5f565b6001836020036101000a03801982511681845116808217855250505050505090500182600160a060020a0316600160a060020a0316606060020a028152601401925050506040516020818303038152906040526040518082805190602001908083835b60208310611f005780518252601f199092019160209182019101611ee1565b51815160209384036101000a60001901801990921691161790526040805192909401829003822063ffffffff881660e060020a0283526004830152925160248083019650939450929083900301905081600087803b158015611f6157600080fd5b505af1158015611f75573d6000803e3d6000fd5b505050506040513d6020811015611f8b57600080fd5b5051604080518082018252600d80825260008051602061277c83398151915260208381019182529351949550600160a060020a0389169463ffb4f62394899391019182918083835b60208310611ff25780518252601f199092019160209182019101611fd3565b6001836020036101000a03801982511681845116808217855250505050505090500182600160a060020a0316600160a060020a0316606060020a028152601401925050506040516020818303038152906040526040518082805190602001908083835b602083106120745780518252601f199092019160209182019101612055565b6001836020036101000a03801982511681845116808217855250505050505090500191505060405180910390206120b48585611b9890919063ffffffff16565b6040518363ffffffff1660e060020a02815260040180836000191660001916815260200182815260200192505050600060405180830381600087803b15801561140957600080fd5b6000600160a060020a0383161515612184576040805160e560020a62461bcd02815260206004820152602860248201527f546f6b656e536572766963653a206275726e2066726f6d20746865207a65726f60448201527f206163636f756e74000000000000000000000000000000000000000000000000606482015290519081900360840190fd5b83600160a060020a031663ffb4f6236040805190810160405280601281526020017f746f6b656e2e746f74616c2d737570706c7900000000000000000000000000008152506040516020018080602001828103825283818151815260200191508051906020019080838360005b838110156122095781810151838201526020016121f1565b50505050905090810190601f1680156122365780820380516001836020036101000a031916815260200191505b50925050506040516020818303038152906040526040518082805190602001908083835b602083106122795780518252601f19909201916020918201910161225a565b6001836020036101000a03801982511681845116808217855250505050505090500191505060405180910390206122bf856122b389610777565b9063ffffffff611b3616565b6040518363ffffffff1660e060020a02815260040180836000191660001916815260200182815260200192505050600060405180830381600087803b15801561230757600080fd5b505af115801561231b573d6000803e3d6000fd5b5050505083600160a060020a031663e82617fb6040805190810160405280600d815260200160008051602061277c833981519152815250856040516020018083805190602001908083835b602083106123855780518252601f199092019160209182019101612366565b6001836020036101000a03801982511681845116808217855250505050505090500182600160a060020a0316600160a060020a0316606060020a028152601401925050506040516020818303038152906040526040518082805190602001908083835b602083106124075780518252601f1990920191602091820191016123e8565b51815160209384036101000a60001901801990921691161790526040805192909401829003822063ffffffff881660e060020a0283526004830152925160248083019650939450929083900301905081600087803b15801561246857600080fd5b505af115801561247c573d6000803e3d6000fd5b505050506040513d602081101561249257600080fd5b5051604080518082018252600d80825260008051602061277c83398151915260208381019182529351949550600160a060020a0389169463ffb4f62394899391019182918083835b602083106124f95780518252601f1990920191602091820191016124da565b6001836020036101000a03801982511681845116808217855250505050505090500182600160a060020a0316600160a060020a0316606060020a028152601401925050506040516020818303038152906040526040518082805190602001908083835b6020831061257b5780518252601f19909201916020918201910161255c565b6001836020036101000a03801982511681845116808217855250505050505090500191505060405180910390206120b48585611b3690919063ffffffff16565b60006125c88484846120fc565b83600160a060020a031663e82617fb6040805190810160405280600f815260200160008051602061279c83398151915281525085336040516020018084805190602001908083835b6020831061262f5780518252601f199092019160209182019101612610565b6001836020036101000a03801982511681845116808217855250505050505090500183600160a060020a0316600160a060020a0316606060020a02815260140182600160a060020a0316600160a060020a0316606060020a02815260140193505050506040516020818303038152906040526040518082805190602001908083835b602083106126d05780518252601f1990920191602091820191016126b1565b51815160209384036101000a60001901801990921691161790526040805192909401829003822063ffffffff881660e060020a0283526004830152925160248083019650939450929083900301905081600087803b15801561273157600080fd5b505af1158015612745573d6000803e3d6000fd5b505050506040513d602081101561275b57600080fd5b50519050612775848433610abd858763ffffffff611b3616565b505050505600746f6b656e2e62616c616e636500000000000000000000000000000000000000746f6b656e2e616c6c6f77616e63650000000000000000000000000000000000a165627a7a72305820740d1e6c4a4acbbe3a4630948cc64c6a3a40808123c262db7bbcb915c45225240029",
  "source": "pragma solidity 0.4.25;\n\nimport './../../common/SafeMath.sol';\nimport './../../common/Named.sol';\nimport './../../common/Mortal.sol';\nimport './../../common/Database.sol';\nimport './../../access/ControlledByAdmin.sol';\n\ncontract TokenDatabase is Database {\n\n}\n\nlibrary TokenPersistence {\n    \n    string constant BALANCE = \"token.balance\";\n    string constant TOTAL_SUPPLY_VALUE = \"token.total-supply\";\n    string constant ALLOWANCE = \"token.allowance\";\n    bytes32 constant TOTAL_SUPPLY = keccak256(abi.encode(TOTAL_SUPPLY_VALUE));\n\n    using SafeMath for uint;\n\n    function totalSupply(TokenDatabase self) internal view returns (uint) {\n        return self.getUintValue(TOTAL_SUPPLY);\n    }\n\n    function balanceOf(TokenDatabase self, address owner) internal view returns (uint) {\n        return self.getUintValue(keccak256(abi.encodePacked(BALANCE, owner)));\n    }\n\n    function allowance(TokenDatabase self, address owner, address spender) internal view returns (uint) {\n        return self.getUintValue(keccak256(abi.encodePacked(ALLOWANCE, owner, spender)));\n    }\n\n    function transfer(TokenDatabase self, address to, uint value) internal returns (bool) {\n        _transfer(self, msg.sender, to, value);\n        return true;\n    }\n\n    function approve(TokenDatabase self, address spender, uint value) internal returns (bool) {\n        _approve(self, msg.sender, spender, value);\n        return true;\n    }\n\n    function transferFrom(TokenDatabase self, address from, address to, uint value) internal returns (bool) {\n        _transfer(self, from, to, value);\n        uint senderAllowanceBefore = self.getUintValue(keccak256(abi.encodePacked(ALLOWANCE, from, msg.sender)));\n        _approve(self, from, msg.sender, senderAllowanceBefore.sub(value));\n    }\n\n    function increaseAllowance(TokenDatabase self, address spender, uint addedValue) internal returns (bool) {\n        uint spenderAllowedBefore = self.getUintValue(keccak256(abi.encodePacked(ALLOWANCE, msg.sender, spender)));\n        _approve(self, msg.sender, spender, spenderAllowedBefore.add(addedValue));\n        return true;\n    }\n\n    function decreaseAllowance(TokenDatabase self, address spender, uint subtractedValue) internal returns (bool) {\n        uint spenderAllowedBefore = self.getUintValue(keccak256(abi.encodePacked(ALLOWANCE, msg.sender, spender)));\n        _approve(self, msg.sender, spender, spenderAllowedBefore.sub(subtractedValue));\n        return true;\n    }\n\n    function mint(TokenDatabase self, address to, uint value) internal returns (bool) {\n        _mint(self, to, value);\n        return true;\n    }\n\n    function burn(TokenDatabase self, uint value) internal {\n        _burn(self, msg.sender, value);\n    }\n\n    function burnFrom(TokenDatabase self, address from, uint value) internal {\n        _burnFrom(self, from, value);\n    }\n\n    function _transfer(TokenDatabase self, address from, address to, uint value) private {\n        require(to != address(0), \"TokenService: transfer to the zero address\");\n        require(from != address(0), \"TokenService: transfer from the zero address\");\n        uint fromBeforeBalance = self.getUintValue(keccak256(abi.encodePacked(BALANCE, from)));\n        self.setUintValue(keccak256(abi.encodePacked(BALANCE, from)), fromBeforeBalance.sub(value));\n        uint toBeforeBalance = self.getUintValue(keccak256(abi.encodePacked(BALANCE, to)));\n        self.setUintValue(keccak256(abi.encodePacked(BALANCE, to)), toBeforeBalance.add(value));\n    }\n\n    function _mint(TokenDatabase self, address account, uint value) private {\n        require(account != address(0), \"TokenService: transfer to the zero address\");\n        self.setUintValue(TOTAL_SUPPLY, totalSupply(self).add(value));\n        uint accauntBalanceBefore = self.getUintValue(keccak256(abi.encodePacked(BALANCE, account)));\n        self.setUintValue(keccak256(abi.encodePacked(BALANCE, account)), accauntBalanceBefore.add(value));\n    }\n\n    function _burn(TokenDatabase self, address account, uint value) private {\n        require(account != address(0), \"TokenService: burn from the zero account\");\n        self.setUintValue(TOTAL_SUPPLY, totalSupply(self).sub(value));\n        uint accauntBalanceBefore = self.getUintValue(keccak256(abi.encodePacked(BALANCE, account)));\n        self.setUintValue(keccak256(abi.encodePacked(BALANCE, account)), accauntBalanceBefore.sub(value));\n    }\n\n    function _approve(TokenDatabase self, address owner, address spender, uint value) private {\n        require(owner != address(0), \"TokenService: approve from the zero account\");\n        require(spender != address(0), \"TokenService: approve to the zero account\");\n        self.setUintValue(keccak256(abi.encodePacked(ALLOWANCE, owner, spender)), value);\n    }\n\n    function _burnFrom(TokenDatabase self, address account, uint value) private {\n        _burn(self, account, value);\n        uint spenderAllowedBefore = self.getUintValue(keccak256(abi.encodePacked(ALLOWANCE, account, msg.sender)));\n        _approve(self, account, msg.sender, spenderAllowedBefore.sub(value));\n    }\n\n}\n\ninterface IERC20 {\n    function transfer(address to, uint256 value) external returns (bool);\n\n    function approve(address spender, uint256 value) external returns (bool);\n\n    function transferFrom(address from, address to, uint256 value) external returns (bool);\n\n    function totalSupply() external view returns (uint256);\n\n    function balanceOf(address who) external view returns (uint256);\n\n    function allowance(address owner, address spender) external view returns (uint256);\n\n    function increaseAllowance(address spender, uint256 addedValue) external returns (bool);\n\n    function decreaseAllowance(address spender, uint256 subtractedValue) external returns (bool);\n\n    function mint(address to, uint256 value) external returns (bool);\n\n    function burn(uint256 value) external;\n\n    function burnFrom(address from, uint256 value) external;\n\n}\n\ncontract TokenService is IERC20, Mortal, Named(\"token-service\"), ControlledByAdmin {\n    \n    using TokenPersistence for TokenDatabase;\n\n    TokenDatabase private _tokenDatabase;\n\n    constructor (IContext context, address tokenDatabase) ControlledByAdmin(context) public {\n        require(tokenDatabase != address(0), \"TokenService: database must be not the zero address\");\n        _tokenDatabase = TokenDatabase(tokenDatabase);\n    }\n\n    function totalSupply() public view returns (uint256) {\n        return _tokenDatabase.totalSupply();\n    }\n\n    function balanceOf(address owner) public view returns (uint256) {\n        return _tokenDatabase.balanceOf(owner);\n    }\n\n    function allowance(address owner, address spender) public view returns (uint256) {\n        return _tokenDatabase.allowance(owner, spender);\n    }\n\n    function transfer(address to, uint256 value) public returns (bool) {\n        return _tokenDatabase.transfer(to, value);\n    }\n\n    function approve(address spender, uint256 value) public returns (bool) {\n        return _tokenDatabase.approve(spender, value);\n    }\n\n    function transferFrom(address from, address to, uint256 value) public returns (bool) {\n        return _tokenDatabase.transferFrom(from, to, value);\n    }\n\n    function increaseAllowance(address spender, uint256 addedValue) public returns (bool) {\n        return _tokenDatabase.increaseAllowance(spender, addedValue);\n    }\n\n    function decreaseAllowance(address spender, uint256 subtractedValue) public returns (bool) {\n        return _tokenDatabase.decreaseAllowance(spender, subtractedValue);\n    }\n\n    function mint(address to, uint256 value) public onlyAdmin returns (bool) {\n        return _tokenDatabase.mint(to, value);\n    }\n\n    function burn(uint256 value) public {\n        _tokenDatabase.burn(value);\n    }\n\n    function burnFrom(address from, uint256 value) public {\n        _tokenDatabase.burnFrom(from, value);\n    }\n\n}",
  "sourcePath": "/home/andrew/VsCodeProjects/VaultLogic/new-breath/contracts/platform/services/TokenService.sol",
  "compiler": {
    "name": "solc",
    "version": "0.4.25+commit.59dbf8f1.Emscripten.clang"
  },
  "schemaVersion": "3.0.9",
  "updatedAt": "2019-05-12T13:17:02.540Z",
  "devdoc": {
    "methods": {}
  },
  "userdoc": {
    "methods": {}
  }
}